{
  "contractName": "Blockchain",
  "abi": [
    {
      "inputs": [
        {
          "internalType": "uint256",
          "name": "blockchain_address",
          "type": "uint256"
        },
        {
          "internalType": "uint256",
          "name": "id",
          "type": "uint256"
        },
        {
          "internalType": "string",
          "name": "name",
          "type": "string"
        },
        {
          "internalType": "string",
          "name": "date_of_joining",
          "type": "string"
        }
      ],
      "name": "addDeveloper",
      "outputs": [],
      "stateMutability": "nonpayable",
      "type": "function"
    },
    {
      "inputs": [
        {
          "internalType": "uint256",
          "name": "blockchain_address",
          "type": "uint256"
        }
      ],
      "name": "getDeveloper",
      "outputs": [
        {
          "internalType": "uint256",
          "name": "",
          "type": "uint256"
        },
        {
          "internalType": "string",
          "name": "",
          "type": "string"
        },
        {
          "internalType": "string",
          "name": "",
          "type": "string"
        }
      ],
      "stateMutability": "view",
      "type": "function",
      "constant": true
    },
    {
      "inputs": [
        {
          "internalType": "uint256",
          "name": "blockchain_address",
          "type": "uint256"
        },
        {
          "internalType": "uint256",
          "name": "id",
          "type": "uint256"
        },
        {
          "internalType": "string",
          "name": "name",
          "type": "string"
        },
        {
          "internalType": "string",
          "name": "date_of_joining",
          "type": "string"
        }
      ],
      "name": "addLeadDeveloper",
      "outputs": [],
      "stateMutability": "nonpayable",
      "type": "function"
    },
    {
      "inputs": [
        {
          "internalType": "uint256",
          "name": "blockchain_address",
          "type": "uint256"
        }
      ],
      "name": "getLeadDeveloper",
      "outputs": [
        {
          "internalType": "uint256",
          "name": "",
          "type": "uint256"
        },
        {
          "internalType": "string",
          "name": "",
          "type": "string"
        },
        {
          "internalType": "string",
          "name": "",
          "type": "string"
        }
      ],
      "stateMutability": "view",
      "type": "function",
      "constant": true
    },
    {
      "inputs": [
        {
          "internalType": "string",
          "name": "result",
          "type": "string"
        },
        {
          "internalType": "string",
          "name": "vulscore",
          "type": "string"
        },
        {
          "internalType": "string",
          "name": "nonvulscore",
          "type": "string"
        },
        {
          "internalType": "string",
          "name": "filename",
          "type": "string"
        },
        {
          "internalType": "uint256",
          "name": "ptimestamp",
          "type": "uint256"
        },
        {
          "internalType": "uint256",
          "name": "utimestamp",
          "type": "uint256"
        },
        {
          "internalType": "string",
          "name": "filepath",
          "type": "string"
        },
        {
          "internalType": "string",
          "name": "developer_id",
          "type": "string"
        }
      ],
      "name": "addMlResult",
      "outputs": [],
      "stateMutability": "nonpayable",
      "type": "function"
    },
    {
      "inputs": [],
      "name": "getAllMlResult",
      "outputs": [
        {
          "components": [
            {
              "internalType": "uint256",
              "name": "serial_no",
              "type": "uint256"
            },
            {
              "internalType": "string",
              "name": "result",
              "type": "string"
            },
            {
              "internalType": "string",
              "name": "vulscore",
              "type": "string"
            },
            {
              "internalType": "string",
              "name": "nonvulscore",
              "type": "string"
            },
            {
              "internalType": "string",
              "name": "filename",
              "type": "string"
            },
            {
              "internalType": "uint256",
              "name": "ptimestamp",
              "type": "uint256"
            },
            {
              "internalType": "uint256",
              "name": "utimestamp",
              "type": "uint256"
            },
            {
              "internalType": "string",
              "name": "filepath",
              "type": "string"
            },
            {
              "internalType": "string",
              "name": "developer_id",
              "type": "string"
            }
          ],
          "internalType": "struct Blockchain.MlResult[]",
          "name": "",
          "type": "tuple[]"
        }
      ],
      "stateMutability": "view",
      "type": "function",
      "constant": true
    },
    {
      "inputs": [
        {
          "internalType": "uint256",
          "name": "serial_no",
          "type": "uint256"
        }
      ],
      "name": "getMlResultBySerialNo",
      "outputs": [
        {
          "components": [
            {
              "internalType": "uint256",
              "name": "serial_no",
              "type": "uint256"
            },
            {
              "internalType": "string",
              "name": "result",
              "type": "string"
            },
            {
              "internalType": "string",
              "name": "vulscore",
              "type": "string"
            },
            {
              "internalType": "string",
              "name": "nonvulscore",
              "type": "string"
            },
            {
              "internalType": "string",
              "name": "filename",
              "type": "string"
            },
            {
              "internalType": "uint256",
              "name": "ptimestamp",
              "type": "uint256"
            },
            {
              "internalType": "uint256",
              "name": "utimestamp",
              "type": "uint256"
            },
            {
              "internalType": "string",
              "name": "filepath",
              "type": "string"
            },
            {
              "internalType": "string",
              "name": "developer_id",
              "type": "string"
            }
          ],
          "internalType": "struct Blockchain.MlResult",
          "name": "",
          "type": "tuple"
        }
      ],
      "stateMutability": "view",
      "type": "function",
      "constant": true
    }
  ],
  "bytecode": "0x60806040526000805534801561001457600080fd5b5061131c806100246000396000f3fe608060405234801561001057600080fd5b506004361061009a576000357c0100000000000000000000000000000000000000000000000000000000900480637a276bb6116100785780637a276bb6146100f45780639ac5915114610107578063bf2b52691461011a578063e1f24ae31461013a57600080fd5b80632c8f5b631461009f5780632e34d76e146100bd578063409027a8146100df575b600080fd5b6100a761014d565b6040516100b49190610f0e565b60405180910390f35b6100d06100cb366004610f6f565b6105da565b6040516100b493929190610f88565b6100f26100ed36600461106f565b610749565b005b6100d0610102366004610f6f565b6107b4565b6100f261011536600461106f565b6107f3565b61012d610128366004610f6f565b610836565b6040516100b491906110e6565b6100f2610148366004611100565b610c35565b60606000805467ffffffffffffffff81111561016b5761016b610fb3565b6040519080825280602002602001820160405280156101eb57816020015b6101d86040518061012001604052806000815260200160608152602001606081526020016060815260200160608152602001600081526020016000815260200160608152602001606081525090565b8152602001906001900390816101895790505b50905060005b6000548110156105d4576003600082815260200190815260200160002060405180610120016040529081600082015481526020016001820180546102349061120a565b80601f01602080910402602001604051908101604052809291908181526020018280546102609061120a565b80156102ad5780601f10610282576101008083540402835291602001916102ad565b820191906000526020600020905b81548152906001019060200180831161029057829003601f168201915b505050505081526020016002820180546102c69061120a565b80601f01602080910402602001604051908101604052809291908181526020018280546102f29061120a565b801561033f5780601f106103145761010080835404028352916020019161033f565b820191906000526020600020905b81548152906001019060200180831161032257829003601f168201915b505050505081526020016003820180546103589061120a565b80601f01602080910402602001604051908101604052809291908181526020018280546103849061120a565b80156103d15780601f106103a6576101008083540402835291602001916103d1565b820191906000526020600020905b8154815290600101906020018083116103b457829003601f168201915b505050505081526020016004820180546103ea9061120a565b80601f01602080910402602001604051908101604052809291908181526020018280546104169061120a565b80156104635780601f1061043857610100808354040283529160200191610463565b820191906000526020600020905b81548152906001019060200180831161044657829003601f168201915b5050505050815260200160058201548152602001600682015481526020016007820180546104909061120a565b80601f01602080910402602001604051908101604052809291908181526020018280546104bc9061120a565b80156105095780601f106104de57610100808354040283529160200191610509565b820191906000526020600020905b8154815290600101906020018083116104ec57829003601f168201915b505050505081526020016008820180546105229061120a565b80601f016020809104026020016040519081016040528092919081815260200182805461054e9061120a565b801561059b5780601f106105705761010080835404028352916020019161059b565b820191906000526020600020905b81548152906001019060200180831161057e57829003601f168201915b5050505050815250508282815181106105b6576105b6611257565b602002602001018190525080806105cc906112b5565b9150506101f1565b50919050565b6000606080600060026000868152602001908152602001600020604051806060016040529081600082015481526020016001820180546106199061120a565b80601f01602080910402602001604051908101604052809291908181526020018280546106459061120a565b80156106925780601f1061066757610100808354040283529160200191610692565b820191906000526020600020905b81548152906001019060200180831161067557829003601f168201915b505050505081526020016002820180546106ab9061120a565b80601f01602080910402602001604051908101604052809291908181526020018280546106d79061120a565b80156107245780601f106106f957610100808354040283529160200191610724565b820191906000526020600020905b81548152906001019060200180831161070757829003601f168201915b5050509190925250508151602083015160409093015190989297509550909350505050565b6040805160608101825284815260208082018581528284018590526000888152600180845294902083518155905180519394919361078f93928501929190910190610d67565b50604082015180516107ab916002840191602090910190610d67565b50505050505050565b6000606080600060016000868152602001908152602001600020604051806060016040529081600082015481526020016001820180546106199061120a565b60408051606081018252848152602080820185815282840185905260008881526002835293909320825181559251805192939261078f9260018501920190610d67565b6108856040518061012001604052806000815260200160608152602001606081526020016060815260200160608152602001600081526020016000815260200160608152602001606081525090565b6003600083815260200190815260200160002060405180610120016040529081600082015481526020016001820180546108be9061120a565b80601f01602080910402602001604051908101604052809291908181526020018280546108ea9061120a565b80156109375780601f1061090c57610100808354040283529160200191610937565b820191906000526020600020905b81548152906001019060200180831161091a57829003601f168201915b505050505081526020016002820180546109509061120a565b80601f016020809104026020016040519081016040528092919081815260200182805461097c9061120a565b80156109c95780601f1061099e576101008083540402835291602001916109c9565b820191906000526020600020905b8154815290600101906020018083116109ac57829003601f168201915b505050505081526020016003820180546109e29061120a565b80601f0160208091040260200160405190810160405280929190818152602001828054610a0e9061120a565b8015610a5b5780601f10610a3057610100808354040283529160200191610a5b565b820191906000526020600020905b815481529060010190602001808311610a3e57829003601f168201915b50505050508152602001600482018054610a749061120a565b80601f0160208091040260200160405190810160405280929190818152602001828054610aa09061120a565b8015610aed5780601f10610ac257610100808354040283529160200191610aed565b820191906000526020600020905b815481529060010190602001808311610ad057829003601f168201915b505050505081526020016005820154815260200160068201548152602001600782018054610b1a9061120a565b80601f0160208091040260200160405190810160405280929190818152602001828054610b469061120a565b8015610b935780601f10610b6857610100808354040283529160200191610b93565b820191906000526020600020905b815481529060010190602001808311610b7657829003601f168201915b50505050508152602001600882018054610bac9061120a565b80601f0160208091040260200160405190810160405280929190818152602001828054610bd89061120a565b8015610c255780601f10610bfa57610100808354040283529160200191610c25565b820191906000526020600020905b815481529060010190602001808311610c0857829003601f168201915b5050505050815250509050919050565b60008054604080516101208101825282815260208082018d81528284018d9052606083018c9052608083018b905260a083018a905260c0830189905260e0830188905261010083018790528486526003825292909420815181559151805193949193610ca79260018501920190610d67565b5060408201518051610cc3916002840191602090910190610d67565b5060608201518051610cdf916003840191602090910190610d67565b5060808201518051610cfb916004840191602090910190610d67565b5060a0820151600582015560c0820151600682015560e08201518051610d2b916007840191602090910190610d67565b506101008201518051610d48916008840191602090910190610d67565b5050600054610d59915060016112ce565b600055505050505050505050565b828054610d739061120a565b90600052602060002090601f016020900481019282610d955760008555610ddb565b82601f10610dae57805160ff1916838001178555610ddb565b82800160010185558215610ddb579182015b82811115610ddb578251825591602001919060010190610dc0565b50610de7929150610deb565b5090565b5b80821115610de75760008155600101610dec565b6000815180845260005b81811015610e2657602081850181015186830182015201610e0a565b81811115610e38576000602083870101525b50601f01601f19169290920160200192915050565b6000610120825184526020830151816020860152610e6d82860182610e00565b91505060408301518482036040860152610e878282610e00565b91505060608301518482036060860152610ea18282610e00565b91505060808301518482036080860152610ebb8282610e00565b91505060a083015160a085015260c083015160c085015260e083015184820360e0860152610ee98282610e00565b9150506101008084015185830382870152610f048382610e00565b9695505050505050565b600060208083018184528085518083526040860191506040848202870101925083870160005b82811015610f6257603f19888603018452610f50858351610e4d565b94509285019290850190600101610f34565b5092979650505050505050565b600060208284031215610f8157600080fd5b5035919050565b838152606060208201526000610fa16060830185610e00565b8281036040840152610f048185610e00565b7f4e487b7100000000000000000000000000000000000000000000000000000000600052604160045260246000fd5b600082601f830112610ff357600080fd5b813567ffffffffffffffff8082111561100e5761100e610fb3565b604051601f8301601f19908116603f0116810190828211818310171561103657611036610fb3565b8160405283815286602085880101111561104f57600080fd5b836020870160208301376000602085830101528094505050505092915050565b6000806000806080858703121561108557600080fd5b8435935060208501359250604085013567ffffffffffffffff808211156110ab57600080fd5b6110b788838901610fe2565b935060608701359150808211156110cd57600080fd5b506110da87828801610fe2565b91505092959194509250565b6020815260006110f96020830184610e4d565b9392505050565b600080600080600080600080610100898b03121561111d57600080fd5b883567ffffffffffffffff8082111561113557600080fd5b6111418c838d01610fe2565b995060208b013591508082111561115757600080fd5b6111638c838d01610fe2565b985060408b013591508082111561117957600080fd5b6111858c838d01610fe2565b975060608b013591508082111561119b57600080fd5b6111a78c838d01610fe2565b965060808b0135955060a08b0135945060c08b01359150808211156111cb57600080fd5b6111d78c838d01610fe2565b935060e08b01359150808211156111ed57600080fd5b506111fa8b828c01610fe2565b9150509295985092959890939650565b60028104600182168061121e57607f821691505b6020821081036105d4577f4e487b7100000000000000000000000000000000000000000000000000000000600052602260045260246000fd5b7f4e487b7100000000000000000000000000000000000000000000000000000000600052603260045260246000fd5b7f4e487b7100000000000000000000000000000000000000000000000000000000600052601160045260246000fd5b6000600182016112c7576112c7611286565b5060010190565b600082198211156112e1576112e1611286565b50019056fea264697066735822122091fb3366cc7c774acad1d53d40969f4a70e3087cfad3a39c87d2af38fe513ee464736f6c634300080e0033",
  "immutableReferences": {},
  "source": "//SPDX-License-Identifier:MIT\npragma solidity ^0.8.14;\n\n// smart contract starts here\ncontract Blockchain {\n    struct Developer {\n        uint256 id;\n        string name;\n        string date_of_joining;\n    }\n\n    struct MlResult {\n        uint256 serial_no;\n        string result;\n        string vulscore;\n        string nonvulscore;\n        string filename;\n        uint256 ptimestamp;\n        uint256 utimestamp;\n        string filepath;\n        string developer_id;\n    }\n\n    uint256 total_ml_result_count = 0;\n\n    mapping(uint256 => Developer) developers;\n    mapping(uint256 => Developer) lead_developers;\n    mapping(uint256 => MlResult) ml_results;\n\n    // add Developers\n    function addDeveloper(\n        uint256 blockchain_address,\n        uint256 id,\n        string memory name,\n        string memory date_of_joining\n    ) public {\n        developers[blockchain_address] = Developer(id, name, date_of_joining);\n    }\n\n    // get Developers\n    function getDeveloper(uint256 blockchain_address)\n        public\n        view\n        returns (\n            uint256,\n            string memory,\n            string memory\n        )\n    {\n        Developer memory developer = developers[blockchain_address];\n        return (developer.id, developer.name, developer.date_of_joining);\n    }\n\n    // add Lead Developers\n    function addLeadDeveloper(\n        uint256 blockchain_address,\n        uint256 id,\n        string memory name,\n        string memory date_of_joining\n    ) public {\n        lead_developers[blockchain_address] = Developer(\n            id,\n            name,\n            date_of_joining\n        );\n    }\n\n    // get Lead Developers\n    function getLeadDeveloper(uint256 blockchain_address)\n        public\n        view\n        returns (\n            uint256,\n            string memory,\n            string memory\n        )\n    {\n        Developer memory ld = lead_developers[blockchain_address];\n        return (ld.id, ld.name, ld.date_of_joining);\n    }\n\n    // test result from ML to UI\n    function addMlResult(\n        string memory result,\n        string memory vulscore,\n        string memory nonvulscore,\n        string memory filename,\n        uint256 ptimestamp,\n        uint256 utimestamp,\n        string memory filepath,\n        string memory developer_id\n    ) public {\n        uint256 serial_no = total_ml_result_count;\n        ml_results[total_ml_result_count] = MlResult(\n            serial_no,\n            result,\n            vulscore,\n            nonvulscore,\n            filename,\n            ptimestamp,\n            utimestamp,\n            filepath,\n            developer_id\n        );\n\n        total_ml_result_count = total_ml_result_count + 1;\n    }\n\n    //return all result for viewmore\n    function getAllMlResult() public view returns (MlResult[] memory) {\n        MlResult[] memory details = new MlResult[](total_ml_result_count);\n        for (uint256 i = 0; i < total_ml_result_count; i++) {\n            details[i] = ml_results[i];\n        }\n        return details;\n    }\n\n    function getMlResultBySerialNo(uint256 serial_no)\n        public\n        view\n        returns (MlResult memory)\n    {\n        return ml_results[serial_no];\n    }\n}\n",
  "sourcePath": "/home/student/SCVDP_pro/scvdp/contracts/Blockchain.sol",
  "compiler": {
    "name": "solc",
    "version": "0.8.14+commit.80d49f37.Emscripten.clang"
  },
  "schemaVersion": "3.4.7",
  "updatedAt": "2022-06-21T09:09:07.922Z",
  "networkType": "ethereum",
  "devdoc": {
    "kind": "dev",
    "methods": {},
    "version": 1
  },
  "userdoc": {
    "kind": "user",
    "methods": {},
    "version": 1
  }
}