{
  "contractName": "Blockchain",
  "abi": [
    {
      "inputs": [
        {
          "internalType": "uint256",
          "name": "blockchain_address",
          "type": "uint256"
        },
        {
          "internalType": "uint256",
          "name": "id",
          "type": "uint256"
        },
        {
          "internalType": "string",
          "name": "name",
          "type": "string"
        },
        {
          "internalType": "string",
          "name": "date_of_joining",
          "type": "string"
        }
      ],
      "name": "addDeveloper",
      "outputs": [],
      "stateMutability": "nonpayable",
      "type": "function"
    },
    {
      "inputs": [
        {
          "internalType": "uint256",
          "name": "blockchain_address",
          "type": "uint256"
        }
      ],
      "name": "getDeveloper",
      "outputs": [
        {
          "internalType": "uint256",
          "name": "",
          "type": "uint256"
        },
        {
          "internalType": "string",
          "name": "",
          "type": "string"
        },
        {
          "internalType": "string",
          "name": "",
          "type": "string"
        }
      ],
      "stateMutability": "view",
      "type": "function"
    },
    {
      "inputs": [
        {
          "internalType": "uint256",
          "name": "blockchain_address",
          "type": "uint256"
        },
        {
          "internalType": "uint256",
          "name": "id",
          "type": "uint256"
        },
        {
          "internalType": "string",
          "name": "name",
          "type": "string"
        },
        {
          "internalType": "string",
          "name": "date_of_joining",
          "type": "string"
        }
      ],
      "name": "addLeadDeveloper",
      "outputs": [],
      "stateMutability": "nonpayable",
      "type": "function"
    },
    {
      "inputs": [
        {
          "internalType": "uint256",
          "name": "blockchain_address",
          "type": "uint256"
        }
      ],
      "name": "getLeadDeveloper",
      "outputs": [
        {
          "internalType": "uint256",
          "name": "",
          "type": "uint256"
        },
        {
          "internalType": "string",
          "name": "",
          "type": "string"
        },
        {
          "internalType": "string",
          "name": "",
          "type": "string"
        }
      ],
      "stateMutability": "view",
      "type": "function"
    },
    {
      "inputs": [
        {
          "internalType": "string",
          "name": "result",
          "type": "string"
        },
        {
          "internalType": "string",
          "name": "vulscore",
          "type": "string"
        },
        {
          "internalType": "string",
          "name": "nonvulscore",
          "type": "string"
        },
        {
          "internalType": "string",
          "name": "filename",
          "type": "string"
        },
        {
          "internalType": "uint256",
          "name": "ptimestamp",
          "type": "uint256"
        },
        {
          "internalType": "uint256",
          "name": "utimestamp",
          "type": "uint256"
        },
        {
          "internalType": "string",
          "name": "filepath",
          "type": "string"
        },
        {
          "internalType": "string",
          "name": "developer_id",
          "type": "string"
        }
      ],
      "name": "addMlResult",
      "outputs": [],
      "stateMutability": "nonpayable",
      "type": "function"
    },
    {
      "inputs": [],
      "name": "getAllMlResult",
      "outputs": [
        {
          "components": [
            {
              "internalType": "uint256",
              "name": "serial_no",
              "type": "uint256"
            },
            {
              "internalType": "string",
              "name": "result",
              "type": "string"
            },
            {
              "internalType": "string",
              "name": "vulscore",
              "type": "string"
            },
            {
              "internalType": "string",
              "name": "nonvulscore",
              "type": "string"
            },
            {
              "internalType": "string",
              "name": "filename",
              "type": "string"
            },
            {
              "internalType": "uint256",
              "name": "ptimestamp",
              "type": "uint256"
            },
            {
              "internalType": "uint256",
              "name": "utimestamp",
              "type": "uint256"
            },
            {
              "internalType": "string",
              "name": "filepath",
              "type": "string"
            },
            {
              "internalType": "string",
              "name": "developer_id",
              "type": "string"
            }
          ],
          "internalType": "struct Blockchain.MlResult[]",
          "name": "",
          "type": "tuple[]"
        }
      ],
      "stateMutability": "view",
      "type": "function"
    },
    {
      "inputs": [
        {
          "internalType": "uint256",
          "name": "serial_no",
          "type": "uint256"
        }
      ],
      "name": "getMlResultBySerialNo",
      "outputs": [
        {
          "components": [
            {
              "internalType": "uint256",
              "name": "serial_no",
              "type": "uint256"
            },
            {
              "internalType": "string",
              "name": "result",
              "type": "string"
            },
            {
              "internalType": "string",
              "name": "vulscore",
              "type": "string"
            },
            {
              "internalType": "string",
              "name": "nonvulscore",
              "type": "string"
            },
            {
              "internalType": "string",
              "name": "filename",
              "type": "string"
            },
            {
              "internalType": "uint256",
              "name": "ptimestamp",
              "type": "uint256"
            },
            {
              "internalType": "uint256",
              "name": "utimestamp",
              "type": "uint256"
            },
            {
              "internalType": "string",
              "name": "filepath",
              "type": "string"
            },
            {
              "internalType": "string",
              "name": "developer_id",
              "type": "string"
            }
          ],
          "internalType": "struct Blockchain.MlResult",
          "name": "",
          "type": "tuple"
        }
      ],
      "stateMutability": "view",
      "type": "function"
    },
    {
      "inputs": [
        {
          "internalType": "uint256",
          "name": "ml_serial_no",
          "type": "uint256"
        },
        {
          "internalType": "bool",
          "name": "astatus",
          "type": "bool"
        },
        {
          "internalType": "uint256",
          "name": "stimestamp",
          "type": "uint256"
        },
        {
          "internalType": "uint256",
          "name": "lead_developer_id",
          "type": "uint256"
        },
        {
          "internalType": "string",
          "name": "filehash",
          "type": "string"
        }
      ],
      "name": "reviewResulttoBC",
      "outputs": [],
      "stateMutability": "nonpayable",
      "type": "function"
    },
    {
      "inputs": [
        {
          "internalType": "uint256",
          "name": "serial_no",
          "type": "uint256"
        }
      ],
      "name": "getReviewResult",
      "outputs": [
        {
          "internalType": "uint256",
          "name": "_serial_no",
          "type": "uint256"
        },
        {
          "internalType": "uint256",
          "name": "ml_serial_no",
          "type": "uint256"
        },
        {
          "internalType": "bool",
          "name": "astatus",
          "type": "bool"
        },
        {
          "internalType": "uint256",
          "name": "stimestamp",
          "type": "uint256"
        },
        {
          "internalType": "uint256",
          "name": "lead_developer_id",
          "type": "uint256"
        },
        {
          "internalType": "string",
          "name": "filehash",
          "type": "string"
        }
      ],
      "stateMutability": "view",
      "type": "function"
    },
    {
      "inputs": [
        {
          "internalType": "uint256",
          "name": "_ml_serial_no",
          "type": "uint256"
        }
      ],
      "name": "getResultByMlSerialNo",
      "outputs": [
        {
          "internalType": "string",
          "name": "filehash",
          "type": "string"
        }
      ],
      "stateMutability": "view",
      "type": "function"
    }
  ],
  "bytecode": "0x608060405260008055600060015534801561001957600080fd5b50611795806100296000396000f3fe608060405234801561001057600080fd5b50600436106100bb576000357c0100000000000000000000000000000000000000000000000000000000900480637a276bb6116100835780637a276bb61461014d5780639ac5915114610160578063bf2b526914610173578063daac74f514610193578063e1f24ae3146101b357600080fd5b8063119688ae146100c05780632c8f5b63146100d55780632e34d76e146100f3578063409027a8146101155780635a2bbc4a14610128575b600080fd5b6100d36100ce366004611271565b6101c6565b005b6100dd610277565b6040516100ea91906113f1565b60405180910390f35b610106610101366004611452565b610704565b6040516100ea9392919061146b565b6100d3610123366004611496565b61087f565b61013b610136366004611452565b6108f8565b6040516100ea9695949392919061150d565b61010661015b366004611452565b610a2a565b6100d361016e366004611496565b610a73565b610186610181366004611452565b610aca565b6040516100ea919061154c565b6101a66101a1366004611452565b610ec9565b6040516100ea9190611566565b6100d36101c1366004611579565b610fea565b600180546040805160c08101825282815260208082018a8152891515838501908152606084018a8152608085018a815260a086018a81526000898152600580885298902087518155945199850199909955915160028401805460ff1916911515919091179055516003830155516004820155945180519495929492936102549390850192919091019061111c565b50905050600180600082825461026a91906116b2565b9091555050505050505050565b60606000805467ffffffffffffffff811115610295576102956111b5565b60405190808252806020026020018201604052801561031557816020015b6103026040518061012001604052806000815260200160608152602001606081526020016060815260200160608152602001600081526020016000815260200160608152602001606081525090565b8152602001906001900390816102b35790505b50905060005b6000548110156106fe5760046000828152602001908152602001600020604051806101200160405290816000820154815260200160018201805461035e906116ca565b80601f016020809104026020016040519081016040528092919081815260200182805461038a906116ca565b80156103d75780601f106103ac576101008083540402835291602001916103d7565b820191906000526020600020905b8154815290600101906020018083116103ba57829003601f168201915b505050505081526020016002820180546103f0906116ca565b80601f016020809104026020016040519081016040528092919081815260200182805461041c906116ca565b80156104695780601f1061043e57610100808354040283529160200191610469565b820191906000526020600020905b81548152906001019060200180831161044c57829003601f168201915b50505050508152602001600382018054610482906116ca565b80601f01602080910402602001604051908101604052809291908181526020018280546104ae906116ca565b80156104fb5780601f106104d0576101008083540402835291602001916104fb565b820191906000526020600020905b8154815290600101906020018083116104de57829003601f168201915b50505050508152602001600482018054610514906116ca565b80601f0160208091040260200160405190810160405280929190818152602001828054610540906116ca565b801561058d5780601f106105625761010080835404028352916020019161058d565b820191906000526020600020905b81548152906001019060200180831161057057829003601f168201915b5050505050815260200160058201548152602001600682015481526020016007820180546105ba906116ca565b80601f01602080910402602001604051908101604052809291908181526020018280546105e6906116ca565b80156106335780601f1061060857610100808354040283529160200191610633565b820191906000526020600020905b81548152906001019060200180831161061657829003601f168201915b5050505050815260200160088201805461064c906116ca565b80601f0160208091040260200160405190810160405280929190818152602001828054610678906116ca565b80156106c55780601f1061069a576101008083540402835291602001916106c5565b820191906000526020600020905b8154815290600101906020018083116106a857829003601f168201915b5050505050815250508282815181106106e0576106e0611717565b602002602001018190525080806106f690611746565b91505061031b565b50919050565b6000606080600060036000868152602001908152602001600020604051806080016040529081600082015481526020016001820154815260200160028201805461074d906116ca565b80601f0160208091040260200160405190810160405280929190818152602001828054610779906116ca565b80156107c65780601f1061079b576101008083540402835291602001916107c6565b820191906000526020600020905b8154815290600101906020018083116107a957829003601f168201915b505050505081526020016003820180546107df906116ca565b80601f016020809104026020016040519081016040528092919081815260200182805461080b906116ca565b80156108585780601f1061082d57610100808354040283529160200191610858565b820191906000526020600020905b81548152906001019060200180831161083b57829003601f168201915b50505091909252505050602081015160408201516060909201519097919650945092505050565b604080516080810182526000808252602080830187815283850187815260608501879052898452600280845295909320845181559051600182015591518051939492936108d393850192919091019061111c565b50606082015180516108ef91600384019160209091019061111c565b50505050505050565b600080600080600060606000600560008981526020019081526020016000206040518060c001604052908160008201548152602001600182015481526020016002820160009054906101000a900460ff161515151581526020016003820154815260200160048201548152602001600582018054610975906116ca565b80601f01602080910402602001604051908101604052809291908181526020018280546109a1906116ca565b80156109ee5780601f106109c3576101008083540402835291602001916109ee565b820191906000526020600020905b8154815290600101906020018083116109d157829003601f168201915b5050509190925250508151602083015160408401516060850151608086015160a090960151939e929d50909b5099509297509550909350505050565b6000606080600060026000868152602001908152602001600020604051806080016040529081600082015481526020016001820154815260200160028201805461074d906116ca565b60408051608081019091528060018152602080820186905260408083018690526060909201849052600087815260038252829020835181558382015160018201559183015180516108d3926002850192019061111c565b610b196040518061012001604052806000815260200160608152602001606081526020016060815260200160608152602001600081526020016000815260200160608152602001606081525090565b600460008381526020019081526020016000206040518061012001604052908160008201548152602001600182018054610b52906116ca565b80601f0160208091040260200160405190810160405280929190818152602001828054610b7e906116ca565b8015610bcb5780601f10610ba057610100808354040283529160200191610bcb565b820191906000526020600020905b815481529060010190602001808311610bae57829003601f168201915b50505050508152602001600282018054610be4906116ca565b80601f0160208091040260200160405190810160405280929190818152602001828054610c10906116ca565b8015610c5d5780601f10610c3257610100808354040283529160200191610c5d565b820191906000526020600020905b815481529060010190602001808311610c4057829003601f168201915b50505050508152602001600382018054610c76906116ca565b80601f0160208091040260200160405190810160405280929190818152602001828054610ca2906116ca565b8015610cef5780601f10610cc457610100808354040283529160200191610cef565b820191906000526020600020905b815481529060010190602001808311610cd257829003601f168201915b50505050508152602001600482018054610d08906116ca565b80601f0160208091040260200160405190810160405280929190818152602001828054610d34906116ca565b8015610d815780601f10610d5657610100808354040283529160200191610d81565b820191906000526020600020905b815481529060010190602001808311610d6457829003601f168201915b505050505081526020016005820154815260200160068201548152602001600782018054610dae906116ca565b80601f0160208091040260200160405190810160405280929190818152602001828054610dda906116ca565b8015610e275780601f10610dfc57610100808354040283529160200191610e27565b820191906000526020600020905b815481529060010190602001808311610e0a57829003601f168201915b50505050508152602001600882018054610e40906116ca565b80601f0160208091040260200160405190810160405280929190818152602001828054610e6c906116ca565b8015610eb95780601f10610e8e57610100808354040283529160200191610eb9565b820191906000526020600020905b815481529060010190602001808311610e9c57829003601f168201915b5050505050815250509050919050565b606060005b6001548110156106fe576000818152600560208181526040808420815160c08101835281548152600182015493810193909352600281015460ff161515918301919091526003810154606083015260048101546080830152918201805491929160a084019190610f3d906116ca565b80601f0160208091040260200160405190810160405280929190818152602001828054610f69906116ca565b8015610fb65780601f10610f8b57610100808354040283529160200191610fb6565b820191906000526020600020905b815481529060010190602001808311610f9957829003601f168201915b505050505081525050905083816020015103610fd75760a0015191506106fe565b5080610fe281611746565b915050610ece565b60008054604080516101208101825282815260208082018d81528284018d9052606083018c9052608083018b905260a083018a905260c0830189905260e083018890526101008301879052848652600482529290942081518155915180519394919361105c926001850192019061111c565b506040820151805161107891600284019160209091019061111c565b506060820151805161109491600384019160209091019061111c565b50608082015180516110b091600484019160209091019061111c565b5060a0820151600582015560c0820151600682015560e082015180516110e091600784019160209091019061111c565b5061010082015180516110fd91600884019160209091019061111c565b505060005461110e915060016116b2565b600055505050505050505050565b828054611128906116ca565b90600052602060002090601f01602090048101928261114a5760008555611190565b82601f1061116357805160ff1916838001178555611190565b82800160010185558215611190579182015b82811115611190578251825591602001919060010190611175565b5061119c9291506111a0565b5090565b5b8082111561119c57600081556001016111a1565b7f4e487b7100000000000000000000000000000000000000000000000000000000600052604160045260246000fd5b600082601f8301126111f557600080fd5b813567ffffffffffffffff80821115611210576112106111b5565b604051601f8301601f19908116603f01168101908282118183101715611238576112386111b5565b8160405283815286602085880101111561125157600080fd5b836020870160208301376000602085830101528094505050505092915050565b600080600080600060a0868803121561128957600080fd5b85359450602086013580151581146112a057600080fd5b93506040860135925060608601359150608086013567ffffffffffffffff8111156112ca57600080fd5b6112d6888289016111e4565b9150509295509295909350565b6000815180845260005b81811015611309576020818501810151868301820152016112ed565b8181111561131b576000602083870101525b50601f01601f19169290920160200192915050565b6000610120825184526020830151816020860152611350828601826112e3565b9150506040830151848203604086015261136a82826112e3565b9150506060830151848203606086015261138482826112e3565b9150506080830151848203608086015261139e82826112e3565b91505060a083015160a085015260c083015160c085015260e083015184820360e08601526113cc82826112e3565b91505061010080840151858303828701526113e783826112e3565b9695505050505050565b600060208083018184528085518083526040860191506040848202870101925083870160005b8281101561144557603f19888603018452611433858351611330565b94509285019290850190600101611417565b5092979650505050505050565b60006020828403121561146457600080fd5b5035919050565b83815260606020820152600061148460608301856112e3565b82810360408401526113e781856112e3565b600080600080608085870312156114ac57600080fd5b8435935060208501359250604085013567ffffffffffffffff808211156114d257600080fd5b6114de888389016111e4565b935060608701359150808211156114f457600080fd5b50611501878288016111e4565b91505092959194509250565b868152856020820152841515604082015283606082015282608082015260c060a0820152600061154060c08301846112e3565b98975050505050505050565b60208152600061155f6020830184611330565b9392505050565b60208152600061155f60208301846112e3565b600080600080600080600080610100898b03121561159657600080fd5b883567ffffffffffffffff808211156115ae57600080fd5b6115ba8c838d016111e4565b995060208b01359150808211156115d057600080fd5b6115dc8c838d016111e4565b985060408b01359150808211156115f257600080fd5b6115fe8c838d016111e4565b975060608b013591508082111561161457600080fd5b6116208c838d016111e4565b965060808b0135955060a08b0135945060c08b013591508082111561164457600080fd5b6116508c838d016111e4565b935060e08b013591508082111561166657600080fd5b506116738b828c016111e4565b9150509295985092959890939650565b7f4e487b7100000000000000000000000000000000000000000000000000000000600052601160045260246000fd5b600082198211156116c5576116c5611683565b500190565b6002810460018216806116de57607f821691505b6020821081036106fe577f4e487b7100000000000000000000000000000000000000000000000000000000600052602260045260246000fd5b7f4e487b7100000000000000000000000000000000000000000000000000000000600052603260045260246000fd5b60006001820161175857611758611683565b506001019056fea2646970667358221220d659daa25986c5d73dedb644c96d6d0f3b7a3730bfbacb94a880a378b334ac4e64736f6c634300080e0033",
  "immutableReferences": {},
  "source": "//SPDX-License-Identifier:MIT\npragma solidity ^0.8.14;\n\n// smart contract starts here\ncontract Blockchain {\n    enum ROLES {\n        DEVELOPER,\n        LEADDEVELOPER,\n        BLOCKCHAINADMIN\n    }\n\n    struct User {\n        uint256 role_id;\n        uint256 id;\n        string name;\n        string date_of_joining;\n    }\n\n    struct MlResult {\n        uint256 serial_no;\n        string result;\n        string vulscore;\n        string nonvulscore;\n        string filename;\n        uint256 ptimestamp;\n        uint256 utimestamp;\n        string filepath;\n        string developer_id;\n    }\n\n    struct ReviewResult {\n        uint256 serial_no;\n        uint256 ml_serial_no; // ML Serial Number form the ML result struct\n        bool astatus; // Code accepted status\n        uint256 stimestamp; // store to ipfs and accepted timestamp\n        uint256 lead_developer_id;\n        string filehash;\n    }\n\n    uint256 total_ml_result_count = 0;\n    uint256 total_review_result_count = 0;\n\n    mapping(uint256 => User) developers;\n    mapping(uint256 => User) lead_developers;\n    mapping(uint256 => MlResult) ml_results;\n    mapping(uint256 => ReviewResult) reviewed;\n\n    // add Developers\n    function addDeveloper(\n        uint256 blockchain_address,\n        uint256 id,\n        string memory name,\n        string memory date_of_joining\n    ) public {\n        developers[blockchain_address] = User(\n            uint256(ROLES.DEVELOPER), // ROLE ID = 1\n            id,\n            name,\n            date_of_joining\n        );\n    }\n\n    // get Developers\n    function getDeveloper(uint256 blockchain_address)\n        public\n        view\n        returns (\n            uint256,\n            string memory,\n            string memory\n        )\n    {\n        User memory developer = developers[blockchain_address];\n        return (developer.id, developer.name, developer.date_of_joining);\n    }\n\n    // add Lead Developers\n    function addLeadDeveloper(\n        uint256 blockchain_address,\n        uint256 id,\n        string memory name,\n        string memory date_of_joining\n    ) public {\n        lead_developers[blockchain_address] = User(\n            uint256(ROLES.LEADDEVELOPER), // ROLE ID = 2\n            id,\n            name,\n            date_of_joining\n        );\n    }\n\n    // get Lead Developers\n    function getLeadDeveloper(uint256 blockchain_address)\n        public\n        view\n        returns (\n            uint256,\n            string memory,\n            string memory\n        )\n    {\n        User memory ld = lead_developers[blockchain_address];\n        return (ld.id, ld.name, ld.date_of_joining);\n    }\n\n    // test result from ML to UI\n    function addMlResult(\n        string memory result,\n        string memory vulscore,\n        string memory nonvulscore,\n        string memory filename,\n        uint256 ptimestamp,\n        uint256 utimestamp,\n        string memory filepath,\n        string memory developer_id\n    ) public {\n        uint256 serial_no = total_ml_result_count;\n        ml_results[total_ml_result_count] = MlResult(\n            serial_no,\n            result,\n            vulscore,\n            nonvulscore,\n            filename,\n            ptimestamp,\n            utimestamp,\n            filepath,\n            developer_id\n        );\n\n        total_ml_result_count = total_ml_result_count + 1;\n    }\n\n    //return all result for viewmore\n    function getAllMlResult() public view returns (MlResult[] memory) {\n        MlResult[] memory details = new MlResult[](total_ml_result_count);\n        for (uint256 i = 0; i < total_ml_result_count; i++) {\n            details[i] = ml_results[i];\n        }\n        return details;\n    }\n\n    function getMlResultBySerialNo(uint256 serial_no)\n        public\n        view\n        returns (MlResult memory)\n    {\n        return ml_results[serial_no];\n    }\n\n    function reviewResulttoBC(\n        uint256 ml_serial_no, // ML Serial Number form the ML result struct\n        bool astatus, // Code accepted status\n        uint256 stimestamp, // store to ipfs and accepted timestamp\n        uint256 lead_developer_id,\n        string memory filehash\n    ) public {\n        uint256 serial_no = total_review_result_count;\n        reviewed[serial_no] = ReviewResult(\n            serial_no,\n            ml_serial_no,\n            astatus,\n            stimestamp,\n            lead_developer_id,\n            filehash\n        );\n        total_review_result_count += 1;\n    }\n\n    function getReviewResult(uint256 serial_no)\n        public\n        view\n        returns (\n            uint256 _serial_no,\n            uint256 ml_serial_no,\n            bool astatus,\n            uint256 stimestamp,\n            uint256 lead_developer_id,\n            string memory filehash\n        )\n    {\n        ReviewResult memory rr = reviewed[serial_no];\n        return (\n            rr.serial_no,\n            rr.ml_serial_no,\n            rr.astatus,\n            rr.stimestamp,\n            rr.lead_developer_id,\n            rr.filehash\n        );\n    }\n\n    function getResultByMlSerialNo(uint256 _ml_serial_no)\n        public\n        view\n        returns (string memory filehash)\n    {\n        for (uint256 i = 0; i < total_review_result_count; i++) {\n            ReviewResult memory rr = reviewed[i];\n            if (rr.ml_serial_no == _ml_serial_no) {\n                filehash = rr.filehash;\n                break;\n            }\n        }\n    }\n}\n",
  "sourcePath": "/Users/jayamhy/scvdp/contracts/Blockchain.sol",
  "compiler": {
    "name": "solc",
    "version": "0.8.14+commit.80d49f37.Emscripten.clang"
  },
  "schemaVersion": "3.4.7",
  "updatedAt": "2022-10-29T09:56:21.456Z",
  "devdoc": {
    "kind": "dev",
    "methods": {},
    "version": 1
  },
  "userdoc": {
    "kind": "user",
    "methods": {},
    "version": 1
  }
}