{
  "contractName": "Blockchain",
  "abi": [
    {
      "inputs": [
        {
          "internalType": "uint256",
          "name": "blockchain_address",
          "type": "uint256"
        },
        {
          "internalType": "uint256",
          "name": "id",
          "type": "uint256"
        },
        {
          "internalType": "string",
          "name": "name",
          "type": "string"
        },
        {
          "internalType": "string",
          "name": "date_of_joining",
          "type": "string"
        }
      ],
      "name": "addDeveloper",
      "outputs": [],
      "stateMutability": "nonpayable",
      "type": "function"
    },
    {
      "inputs": [
        {
          "internalType": "uint256",
          "name": "blockchain_address",
          "type": "uint256"
        }
      ],
      "name": "getDeveloper",
      "outputs": [
        {
          "internalType": "uint256",
          "name": "",
          "type": "uint256"
        },
        {
          "internalType": "string",
          "name": "",
          "type": "string"
        },
        {
          "internalType": "string",
          "name": "",
          "type": "string"
        }
      ],
      "stateMutability": "view",
      "type": "function",
      "constant": true
    },
    {
      "inputs": [
        {
          "internalType": "uint256",
          "name": "blockchain_address",
          "type": "uint256"
        },
        {
          "internalType": "uint256",
          "name": "id",
          "type": "uint256"
        },
        {
          "internalType": "string",
          "name": "name",
          "type": "string"
        },
        {
          "internalType": "string",
          "name": "date_of_joining",
          "type": "string"
        }
      ],
      "name": "addLeadDeveloper",
      "outputs": [],
      "stateMutability": "nonpayable",
      "type": "function"
    },
    {
      "inputs": [
        {
          "internalType": "uint256",
          "name": "blockchain_address",
          "type": "uint256"
        }
      ],
      "name": "getLeadDeveloper",
      "outputs": [
        {
          "internalType": "uint256",
          "name": "",
          "type": "uint256"
        },
        {
          "internalType": "string",
          "name": "",
          "type": "string"
        },
        {
          "internalType": "string",
          "name": "",
          "type": "string"
        }
      ],
      "stateMutability": "view",
      "type": "function",
      "constant": true
    },
    {
      "inputs": [
        {
          "internalType": "string",
          "name": "result",
          "type": "string"
        },
        {
          "internalType": "string",
          "name": "vulscore",
          "type": "string"
        },
        {
          "internalType": "string",
          "name": "nonvulscore",
          "type": "string"
        },
        {
          "internalType": "string",
          "name": "filename",
          "type": "string"
        },
        {
          "internalType": "uint256",
          "name": "ptimestamp",
          "type": "uint256"
        },
        {
          "internalType": "uint256",
          "name": "utimestamp",
          "type": "uint256"
        },
        {
          "internalType": "string",
          "name": "filepath",
          "type": "string"
        },
        {
          "internalType": "string",
          "name": "developer_id",
          "type": "string"
        }
      ],
      "name": "addMlResult",
      "outputs": [],
      "stateMutability": "nonpayable",
      "type": "function"
    },
    {
      "inputs": [],
      "name": "getAllMlResult",
      "outputs": [
        {
          "components": [
            {
              "internalType": "uint256",
              "name": "serial_no",
              "type": "uint256"
            },
            {
              "internalType": "string",
              "name": "result",
              "type": "string"
            },
            {
              "internalType": "string",
              "name": "vulscore",
              "type": "string"
            },
            {
              "internalType": "string",
              "name": "nonvulscore",
              "type": "string"
            },
            {
              "internalType": "string",
              "name": "filename",
              "type": "string"
            },
            {
              "internalType": "uint256",
              "name": "ptimestamp",
              "type": "uint256"
            },
            {
              "internalType": "uint256",
              "name": "utimestamp",
              "type": "uint256"
            },
            {
              "internalType": "string",
              "name": "filepath",
              "type": "string"
            },
            {
              "internalType": "string",
              "name": "developer_id",
              "type": "string"
            }
          ],
          "internalType": "struct Blockchain.MlResult[]",
          "name": "",
          "type": "tuple[]"
        }
      ],
      "stateMutability": "view",
      "type": "function",
      "constant": true
    },
    {
      "inputs": [
        {
          "internalType": "uint256",
          "name": "serial_no",
          "type": "uint256"
        }
      ],
      "name": "getMlResultBySerialNo",
      "outputs": [
        {
          "components": [
            {
              "internalType": "uint256",
              "name": "serial_no",
              "type": "uint256"
            },
            {
              "internalType": "string",
              "name": "result",
              "type": "string"
            },
            {
              "internalType": "string",
              "name": "vulscore",
              "type": "string"
            },
            {
              "internalType": "string",
              "name": "nonvulscore",
              "type": "string"
            },
            {
              "internalType": "string",
              "name": "filename",
              "type": "string"
            },
            {
              "internalType": "uint256",
              "name": "ptimestamp",
              "type": "uint256"
            },
            {
              "internalType": "uint256",
              "name": "utimestamp",
              "type": "uint256"
            },
            {
              "internalType": "string",
              "name": "filepath",
              "type": "string"
            },
            {
              "internalType": "string",
              "name": "developer_id",
              "type": "string"
            }
          ],
          "internalType": "struct Blockchain.MlResult",
          "name": "",
          "type": "tuple"
        }
      ],
      "stateMutability": "view",
      "type": "function",
      "constant": true
    },
    {
      "inputs": [
        {
          "internalType": "uint256",
          "name": "ml_serial_no",
          "type": "uint256"
        },
        {
          "internalType": "bool",
          "name": "astatus",
          "type": "bool"
        },
        {
          "internalType": "uint256",
          "name": "stimestamp",
          "type": "uint256"
        },
        {
          "internalType": "uint256",
          "name": "lead_developer_id",
          "type": "uint256"
        },
        {
          "internalType": "string",
          "name": "filehash",
          "type": "string"
        }
      ],
      "name": "reviewResulttoBC",
      "outputs": [],
      "stateMutability": "nonpayable",
      "type": "function"
    },
    {
      "inputs": [
        {
          "internalType": "uint256",
          "name": "serial_no",
          "type": "uint256"
        }
      ],
      "name": "getReviewResult",
      "outputs": [
        {
          "internalType": "bool",
          "name": "astatus",
          "type": "bool"
        },
        {
          "internalType": "uint256",
          "name": "ml_serial_no",
          "type": "uint256"
        },
        {
          "internalType": "uint256",
          "name": "stimestamp",
          "type": "uint256"
        },
        {
          "internalType": "uint256",
          "name": "lead_developer_id",
          "type": "uint256"
        },
        {
          "internalType": "string",
          "name": "filehash",
          "type": "string"
        }
      ],
      "stateMutability": "view",
      "type": "function",
      "constant": true
    }
  ],
  "bytecode": "0x608060405260008055600060015534801561001957600080fd5b506115cb806100296000396000f3fe608060405234801561001057600080fd5b50600436106100b0576000357c0100000000000000000000000000000000000000000000000000000000900480635a2bbc4a116100835780635a2bbc4a1461011d5780637a276bb6146101415780639ac5915114610154578063bf2b526914610167578063e1f24ae31461018757600080fd5b8063119688ae146100b55780632c8f5b63146100ca5780632e34d76e146100e8578063409027a81461010a575b600080fd5b6100c86100c33660046110c1565b61019a565b005b6100d2610238565b6040516100df9190611241565b60405180910390f35b6100fb6100f63660046112a2565b6106c5565b6040516100df939291906112bb565b6100c86101183660046112e6565b610834565b61013061012b3660046112a2565b61089c565b6040516100df95949392919061135d565b6100fb61014f3660046112a2565b6109b9565b6100c86101623660046112e6565b6109f8565b61017a6101753660046112a2565b610a3b565b6040516100df9190611395565b6100c86101953660046113af565b610e3a565b600180546040805160a0810182528881528715156020808301918252828401898152606084018981526080850189815260008881526005855296909620855181559351978401805460ff1916981515989098179097555160028301559451600382015591518051939491936102159260048501920190610f6c565b50905050600180600082825461022b91906114e8565b9091555050505050505050565b60606000805467ffffffffffffffff81111561025657610256611005565b6040519080825280602002602001820160405280156102d657816020015b6102c36040518061012001604052806000815260200160608152602001606081526020016060815260200160608152602001600081526020016000815260200160608152602001606081525090565b8152602001906001900390816102745790505b50905060005b6000548110156106bf5760046000828152602001908152602001600020604051806101200160405290816000820154815260200160018201805461031f90611500565b80601f016020809104026020016040519081016040528092919081815260200182805461034b90611500565b80156103985780601f1061036d57610100808354040283529160200191610398565b820191906000526020600020905b81548152906001019060200180831161037b57829003601f168201915b505050505081526020016002820180546103b190611500565b80601f01602080910402602001604051908101604052809291908181526020018280546103dd90611500565b801561042a5780601f106103ff5761010080835404028352916020019161042a565b820191906000526020600020905b81548152906001019060200180831161040d57829003601f168201915b5050505050815260200160038201805461044390611500565b80601f016020809104026020016040519081016040528092919081815260200182805461046f90611500565b80156104bc5780601f10610491576101008083540402835291602001916104bc565b820191906000526020600020905b81548152906001019060200180831161049f57829003601f168201915b505050505081526020016004820180546104d590611500565b80601f016020809104026020016040519081016040528092919081815260200182805461050190611500565b801561054e5780601f106105235761010080835404028352916020019161054e565b820191906000526020600020905b81548152906001019060200180831161053157829003601f168201915b50505050508152602001600582015481526020016006820154815260200160078201805461057b90611500565b80601f01602080910402602001604051908101604052809291908181526020018280546105a790611500565b80156105f45780601f106105c9576101008083540402835291602001916105f4565b820191906000526020600020905b8154815290600101906020018083116105d757829003601f168201915b5050505050815260200160088201805461060d90611500565b80601f016020809104026020016040519081016040528092919081815260200182805461063990611500565b80156106865780601f1061065b57610100808354040283529160200191610686565b820191906000526020600020905b81548152906001019060200180831161066957829003601f168201915b5050505050815250508282815181106106a1576106a161154d565b602002602001018190525080806106b79061157c565b9150506102dc565b50919050565b60006060806000600360008681526020019081526020016000206040518060600160405290816000820154815260200160018201805461070490611500565b80601f016020809104026020016040519081016040528092919081815260200182805461073090611500565b801561077d5780601f106107525761010080835404028352916020019161077d565b820191906000526020600020905b81548152906001019060200180831161076057829003601f168201915b5050505050815260200160028201805461079690611500565b80601f01602080910402602001604051908101604052809291908181526020018280546107c290611500565b801561080f5780601f106107e45761010080835404028352916020019161080f565b820191906000526020600020905b8154815290600101906020018083116107f257829003601f168201915b5050509190925250508151602083015160409093015190989297509550909350505050565b6040805160608101825284815260208082018581528284018590526000888152600283529390932082518155925180519293926108779260018501920190610f6c565b5060408201518051610893916002840191602090910190610f6c565b50505050505050565b60008060008060606000600560008881526020019081526020016000206040518060a0016040529081600082015481526020016001820160009054906101000a900460ff16151515158152602001600282015481526020016003820154815260200160048201805461090d90611500565b80601f016020809104026020016040519081016040528092919081815260200182805461093990611500565b80156109865780601f1061095b57610100808354040283529160200191610986565b820191906000526020600020905b81548152906001019060200180831161096957829003601f168201915b505050919092525050506020810151815160408301516060840151608090940151929b919a509850919650945092505050565b60006060806000600260008681526020019081526020016000206040518060600160405290816000820154815260200160018201805461070490611500565b6040805160608101825284815260208082018581528284018590526000888152600383529390932082518155925180519293926108779260018501920190610f6c565b610a8a6040518061012001604052806000815260200160608152602001606081526020016060815260200160608152602001600081526020016000815260200160608152602001606081525090565b600460008381526020019081526020016000206040518061012001604052908160008201548152602001600182018054610ac390611500565b80601f0160208091040260200160405190810160405280929190818152602001828054610aef90611500565b8015610b3c5780601f10610b1157610100808354040283529160200191610b3c565b820191906000526020600020905b815481529060010190602001808311610b1f57829003601f168201915b50505050508152602001600282018054610b5590611500565b80601f0160208091040260200160405190810160405280929190818152602001828054610b8190611500565b8015610bce5780601f10610ba357610100808354040283529160200191610bce565b820191906000526020600020905b815481529060010190602001808311610bb157829003601f168201915b50505050508152602001600382018054610be790611500565b80601f0160208091040260200160405190810160405280929190818152602001828054610c1390611500565b8015610c605780601f10610c3557610100808354040283529160200191610c60565b820191906000526020600020905b815481529060010190602001808311610c4357829003601f168201915b50505050508152602001600482018054610c7990611500565b80601f0160208091040260200160405190810160405280929190818152602001828054610ca590611500565b8015610cf25780601f10610cc757610100808354040283529160200191610cf2565b820191906000526020600020905b815481529060010190602001808311610cd557829003601f168201915b505050505081526020016005820154815260200160068201548152602001600782018054610d1f90611500565b80601f0160208091040260200160405190810160405280929190818152602001828054610d4b90611500565b8015610d985780601f10610d6d57610100808354040283529160200191610d98565b820191906000526020600020905b815481529060010190602001808311610d7b57829003601f168201915b50505050508152602001600882018054610db190611500565b80601f0160208091040260200160405190810160405280929190818152602001828054610ddd90611500565b8015610e2a5780601f10610dff57610100808354040283529160200191610e2a565b820191906000526020600020905b815481529060010190602001808311610e0d57829003601f168201915b5050505050815250509050919050565b60008054604080516101208101825282815260208082018d81528284018d9052606083018c9052608083018b905260a083018a905260c0830189905260e0830188905261010083018790528486526004825292909420815181559151805193949193610eac9260018501920190610f6c565b5060408201518051610ec8916002840191602090910190610f6c565b5060608201518051610ee4916003840191602090910190610f6c565b5060808201518051610f00916004840191602090910190610f6c565b5060a0820151600582015560c0820151600682015560e08201518051610f30916007840191602090910190610f6c565b506101008201518051610f4d916008840191602090910190610f6c565b5050600054610f5e915060016114e8565b600055505050505050505050565b828054610f7890611500565b90600052602060002090601f016020900481019282610f9a5760008555610fe0565b82601f10610fb357805160ff1916838001178555610fe0565b82800160010185558215610fe0579182015b82811115610fe0578251825591602001919060010190610fc5565b50610fec929150610ff0565b5090565b5b80821115610fec5760008155600101610ff1565b7f4e487b7100000000000000000000000000000000000000000000000000000000600052604160045260246000fd5b600082601f83011261104557600080fd5b813567ffffffffffffffff8082111561106057611060611005565b604051601f8301601f19908116603f0116810190828211818310171561108857611088611005565b816040528381528660208588010111156110a157600080fd5b836020870160208301376000602085830101528094505050505092915050565b600080600080600060a086880312156110d957600080fd5b85359450602086013580151581146110f057600080fd5b93506040860135925060608601359150608086013567ffffffffffffffff81111561111a57600080fd5b61112688828901611034565b9150509295509295909350565b6000815180845260005b818110156111595760208185018101518683018201520161113d565b8181111561116b576000602083870101525b50601f01601f19169290920160200192915050565b60006101208251845260208301518160208601526111a082860182611133565b915050604083015184820360408601526111ba8282611133565b915050606083015184820360608601526111d48282611133565b915050608083015184820360808601526111ee8282611133565b91505060a083015160a085015260c083015160c085015260e083015184820360e086015261121c8282611133565b91505061010080840151858303828701526112378382611133565b9695505050505050565b600060208083018184528085518083526040860191506040848202870101925083870160005b8281101561129557603f19888603018452611283858351611180565b94509285019290850190600101611267565b5092979650505050505050565b6000602082840312156112b457600080fd5b5035919050565b8381526060602082015260006112d46060830185611133565b82810360408401526112378185611133565b600080600080608085870312156112fc57600080fd5b8435935060208501359250604085013567ffffffffffffffff8082111561132257600080fd5b61132e88838901611034565b9350606087013591508082111561134457600080fd5b5061135187828801611034565b91505092959194509250565b851515815284602082015283604082015282606082015260a06080820152600061138a60a0830184611133565b979650505050505050565b6020815260006113a86020830184611180565b9392505050565b600080600080600080600080610100898b0312156113cc57600080fd5b883567ffffffffffffffff808211156113e457600080fd5b6113f08c838d01611034565b995060208b013591508082111561140657600080fd5b6114128c838d01611034565b985060408b013591508082111561142857600080fd5b6114348c838d01611034565b975060608b013591508082111561144a57600080fd5b6114568c838d01611034565b965060808b0135955060a08b0135945060c08b013591508082111561147a57600080fd5b6114868c838d01611034565b935060e08b013591508082111561149c57600080fd5b506114a98b828c01611034565b9150509295985092959890939650565b7f4e487b7100000000000000000000000000000000000000000000000000000000600052601160045260246000fd5b600082198211156114fb576114fb6114b9565b500190565b60028104600182168061151457607f821691505b6020821081036106bf577f4e487b7100000000000000000000000000000000000000000000000000000000600052602260045260246000fd5b7f4e487b7100000000000000000000000000000000000000000000000000000000600052603260045260246000fd5b60006001820161158e5761158e6114b9565b506001019056fea26469706673582212206bca630e838965868b760079bee4b4178100ed17bd20fc23ddf4dc8654b21a8164736f6c634300080e0033",
  "immutableReferences": {},
  "source": "//SPDX-License-Identifier:MIT\npragma solidity ^0.8.14;\n\n// smart contract starts here\ncontract Blockchain {\n    struct Developer {\n        uint256 id;\n        string name;\n        string date_of_joining;\n    }\n\n    struct MlResult {\n        uint256 serial_no;\n        string result;\n        string vulscore;\n        string nonvulscore;\n        string filename;\n        uint256 ptimestamp;\n        uint256 utimestamp;\n        string filepath;\n        string developer_id;\n    }\n\n    // This is the finally written on 21 June, 2022\n    struct ReviewResult {\n        uint256 ml_serial_no; // ML Serial Number form the ML result struct\n        bool astatus; // Code accepted status\n        uint256 stimestamp; // store to ipfs and accepted timestamp\n        uint256 lead_developer_id;\n        string filehash;\n    }\n\n    uint256 total_ml_result_count = 0;\n    uint256 total_review_result_count = 0;\n\n    mapping(uint256 => Developer) developers;\n    mapping(uint256 => Developer) lead_developers;\n    mapping(uint256 => MlResult) ml_results;\n    mapping(uint256 => ReviewResult) reviewed;\n\n    // add Developers\n    function addDeveloper(\n        uint256 blockchain_address,\n        uint256 id,\n        string memory name,\n        string memory date_of_joining\n    ) public {\n        developers[blockchain_address] = Developer(id, name, date_of_joining);\n    }\n\n    // get Developers\n    function getDeveloper(uint256 blockchain_address)\n        public\n        view\n        returns (\n            uint256,\n            string memory,\n            string memory\n        )\n    {\n        Developer memory developer = developers[blockchain_address];\n        return (developer.id, developer.name, developer.date_of_joining);\n    }\n\n    // add Lead Developers\n    function addLeadDeveloper(\n        uint256 blockchain_address,\n        uint256 id,\n        string memory name,\n        string memory date_of_joining\n    ) public {\n        lead_developers[blockchain_address] = Developer(\n            id,\n            name,\n            date_of_joining\n        );\n    }\n\n    // get Lead Developers\n    function getLeadDeveloper(uint256 blockchain_address)\n        public\n        view\n        returns (\n            uint256,\n            string memory,\n            string memory\n        )\n    {\n        Developer memory ld = lead_developers[blockchain_address];\n        return (ld.id, ld.name, ld.date_of_joining);\n    }\n\n    // test result from ML to UI\n    function addMlResult(\n        string memory result,\n        string memory vulscore,\n        string memory nonvulscore,\n        string memory filename,\n        uint256 ptimestamp,\n        uint256 utimestamp,\n        string memory filepath,\n        string memory developer_id\n    ) public {\n        uint256 serial_no = total_ml_result_count;\n        ml_results[total_ml_result_count] = MlResult(\n            serial_no,\n            result,\n            vulscore,\n            nonvulscore,\n            filename,\n            ptimestamp,\n            utimestamp,\n            filepath,\n            developer_id\n        );\n\n        total_ml_result_count = total_ml_result_count + 1;\n    }\n\n    //return all result for viewmore\n    function getAllMlResult() public view returns (MlResult[] memory) {\n        MlResult[] memory details = new MlResult[](total_ml_result_count);\n        for (uint256 i = 0; i < total_ml_result_count; i++) {\n            details[i] = ml_results[i];\n        }\n        return details;\n    }\n\n    function getMlResultBySerialNo(uint256 serial_no)\n        public\n        view\n        returns (MlResult memory)\n    {\n        return ml_results[serial_no];\n    }\n\n    function reviewResulttoBC(\n        uint256 ml_serial_no, // ML Serial Number form the ML result struct\n        bool astatus, // Code accepted status\n        uint256 stimestamp, // store to ipfs and accepted timestamp\n        uint256 lead_developer_id,\n        string memory filehash\n    ) public {\n        uint256 serial_no = total_review_result_count;\n        reviewed[serial_no] = ReviewResult(\n            ml_serial_no,\n            astatus,\n            stimestamp,\n            lead_developer_id,\n            filehash\n        );\n        total_review_result_count += 1;\n    }\n\n    function getReviewResult(uint256 serial_no)\n        public\n        view\n        returns (\n            bool astatus, // Code accepted status\n            uint256 ml_serial_no,\n            uint256 stimestamp, // store to ipfs and accepted timestamp\n            uint256 lead_developer_id,\n            string memory filehash\n        )\n    {\n        ReviewResult memory rr = reviewed[serial_no];\n        return (\n            rr.astatus,\n            rr.ml_serial_no,\n            rr.stimestamp,\n            rr.lead_developer_id,\n            rr.filehash\n        );\n    }\n}\n",
  "sourcePath": "/Users/jayamhy/scvdp/contracts/Blockchain.sol",
  "compiler": {
    "name": "solc",
    "version": "0.8.14+commit.80d49f37.Emscripten.clang"
  },
  "schemaVersion": "3.4.7",
  "updatedAt": "2022-06-21T13:28:01.068Z",
  "networkType": "ethereum",
  "devdoc": {
    "kind": "dev",
    "methods": {},
    "version": 1
  },
  "userdoc": {
    "kind": "user",
    "methods": {},
    "version": 1
  }
}