{
  "contractName": "Blockchain",
  "abi": [
    {
      "inputs": [
        {
          "internalType": "uint256",
          "name": "blockchain_address",
          "type": "uint256"
        },
        {
          "internalType": "uint256",
          "name": "id",
          "type": "uint256"
        },
        {
          "internalType": "string",
          "name": "name",
          "type": "string"
        },
        {
          "internalType": "string",
          "name": "date_of_joining",
          "type": "string"
        }
      ],
      "name": "addDeveloper",
      "outputs": [],
      "stateMutability": "nonpayable",
      "type": "function"
    },
    {
      "inputs": [
        {
          "internalType": "uint256",
          "name": "blockchain_address",
          "type": "uint256"
        }
      ],
      "name": "getDeveloper",
      "outputs": [
        {
          "internalType": "uint256",
          "name": "",
          "type": "uint256"
        },
        {
          "internalType": "string",
          "name": "",
          "type": "string"
        },
        {
          "internalType": "string",
          "name": "",
          "type": "string"
        }
      ],
      "stateMutability": "view",
      "type": "function",
      "constant": true
    },
    {
      "inputs": [
        {
          "internalType": "uint256",
          "name": "blockchain_address",
          "type": "uint256"
        },
        {
          "internalType": "uint256",
          "name": "id",
          "type": "uint256"
        },
        {
          "internalType": "string",
          "name": "name",
          "type": "string"
        },
        {
          "internalType": "string",
          "name": "date_of_joining",
          "type": "string"
        }
      ],
      "name": "addLeadDeveloper",
      "outputs": [],
      "stateMutability": "nonpayable",
      "type": "function"
    },
    {
      "inputs": [
        {
          "internalType": "uint256",
          "name": "blockchain_address",
          "type": "uint256"
        }
      ],
      "name": "getLeadDeveloper",
      "outputs": [
        {
          "internalType": "uint256",
          "name": "",
          "type": "uint256"
        },
        {
          "internalType": "string",
          "name": "",
          "type": "string"
        },
        {
          "internalType": "string",
          "name": "",
          "type": "string"
        }
      ],
      "stateMutability": "view",
      "type": "function",
      "constant": true
    },
    {
      "inputs": [
        {
          "internalType": "string",
          "name": "result",
          "type": "string"
        },
        {
          "internalType": "string",
          "name": "vulscore",
          "type": "string"
        },
        {
          "internalType": "string",
          "name": "nonvulscore",
          "type": "string"
        },
        {
          "internalType": "string",
          "name": "filename",
          "type": "string"
        },
        {
          "internalType": "uint256",
          "name": "ptimestamp",
          "type": "uint256"
        },
        {
          "internalType": "uint256",
          "name": "utimestamp",
          "type": "uint256"
        },
        {
          "internalType": "string",
          "name": "filepath",
          "type": "string"
        },
        {
          "internalType": "string",
          "name": "developer_id",
          "type": "string"
        }
      ],
      "name": "addMlResult",
      "outputs": [],
      "stateMutability": "nonpayable",
      "type": "function"
    },
    {
      "inputs": [],
      "name": "getAllMlResult",
      "outputs": [
        {
          "components": [
            {
              "internalType": "uint256",
              "name": "serial_no",
              "type": "uint256"
            },
            {
              "internalType": "string",
              "name": "result",
              "type": "string"
            },
            {
              "internalType": "string",
              "name": "vulscore",
              "type": "string"
            },
            {
              "internalType": "string",
              "name": "nonvulscore",
              "type": "string"
            },
            {
              "internalType": "string",
              "name": "filename",
              "type": "string"
            },
            {
              "internalType": "uint256",
              "name": "ptimestamp",
              "type": "uint256"
            },
            {
              "internalType": "uint256",
              "name": "utimestamp",
              "type": "uint256"
            },
            {
              "internalType": "string",
              "name": "filepath",
              "type": "string"
            },
            {
              "internalType": "string",
              "name": "developer_id",
              "type": "string"
            }
          ],
          "internalType": "struct Blockchain.MlResult[]",
          "name": "",
          "type": "tuple[]"
        }
      ],
      "stateMutability": "view",
      "type": "function",
      "constant": true
    },
    {
      "inputs": [
        {
          "internalType": "uint256",
          "name": "serial_no",
          "type": "uint256"
        }
      ],
      "name": "getMlResultBySerialNo",
      "outputs": [
        {
          "components": [
            {
              "internalType": "uint256",
              "name": "serial_no",
              "type": "uint256"
            },
            {
              "internalType": "string",
              "name": "result",
              "type": "string"
            },
            {
              "internalType": "string",
              "name": "vulscore",
              "type": "string"
            },
            {
              "internalType": "string",
              "name": "nonvulscore",
              "type": "string"
            },
            {
              "internalType": "string",
              "name": "filename",
              "type": "string"
            },
            {
              "internalType": "uint256",
              "name": "ptimestamp",
              "type": "uint256"
            },
            {
              "internalType": "uint256",
              "name": "utimestamp",
              "type": "uint256"
            },
            {
              "internalType": "string",
              "name": "filepath",
              "type": "string"
            },
            {
              "internalType": "string",
              "name": "developer_id",
              "type": "string"
            }
          ],
          "internalType": "struct Blockchain.MlResult",
          "name": "",
          "type": "tuple"
        }
      ],
      "stateMutability": "view",
      "type": "function",
      "constant": true
    },
    {
      "inputs": [
        {
          "internalType": "uint256",
          "name": "ml_serial_no",
          "type": "uint256"
        },
        {
          "internalType": "bool",
          "name": "astatus",
          "type": "bool"
        },
        {
          "internalType": "uint256",
          "name": "stimestamp",
          "type": "uint256"
        },
        {
          "internalType": "uint256",
          "name": "lead_developer_id",
          "type": "uint256"
        },
        {
          "internalType": "string",
          "name": "filehash",
          "type": "string"
        }
      ],
      "name": "reviewResulttoBC",
      "outputs": [],
      "stateMutability": "nonpayable",
      "type": "function"
    },
    {
      "inputs": [
        {
          "internalType": "uint256",
          "name": "serial_no",
          "type": "uint256"
        }
      ],
      "name": "getReviewResult",
      "outputs": [
        {
          "internalType": "uint256",
          "name": "_serial_no",
          "type": "uint256"
        },
        {
          "internalType": "uint256",
          "name": "ml_serial_no",
          "type": "uint256"
        },
        {
          "internalType": "bool",
          "name": "astatus",
          "type": "bool"
        },
        {
          "internalType": "uint256",
          "name": "stimestamp",
          "type": "uint256"
        },
        {
          "internalType": "uint256",
          "name": "lead_developer_id",
          "type": "uint256"
        },
        {
          "internalType": "string",
          "name": "filehash",
          "type": "string"
        }
      ],
      "stateMutability": "view",
      "type": "function",
      "constant": true
    },
    {
      "inputs": [
        {
          "internalType": "uint256",
          "name": "_ml_serial_no",
          "type": "uint256"
        }
      ],
      "name": "getResultByMlSerialNo",
      "outputs": [
        {
          "internalType": "string",
          "name": "filehash",
          "type": "string"
        }
      ],
      "stateMutability": "view",
      "type": "function",
      "constant": true
    }
  ],
  "bytecode": "0x608060405260008055600060015534801561001957600080fd5b5061175a806100296000396000f3fe608060405234801561001057600080fd5b50600436106100bb576000357c0100000000000000000000000000000000000000000000000000000000900480637a276bb6116100835780637a276bb61461014d5780639ac5915114610160578063bf2b526914610173578063daac74f514610193578063e1f24ae3146101b357600080fd5b8063119688ae146100c05780632c8f5b63146100d55780632e34d76e146100f3578063409027a8146101155780635a2bbc4a14610128575b600080fd5b6100d36100ce366004611236565b6101c6565b005b6100dd610277565b6040516100ea91906113b6565b60405180910390f35b610106610101366004611417565b610704565b6040516100ea93929190611430565b6100d361012336600461145b565b610873565b61013b610136366004611417565b6108db565b6040516100ea969594939291906114d2565b61010661015b366004611417565b610a0d565b6100d361016e36600461145b565b610a4c565b610186610181366004611417565b610a8f565b6040516100ea9190611511565b6101a66101a1366004611417565b610e8e565b6040516100ea919061152b565b6100d36101c136600461153e565b610faf565b600180546040805160c08101825282815260208082018a8152891515838501908152606084018a8152608085018a815260a086018a81526000898152600580885298902087518155945199850199909955915160028401805460ff191691151591909117905551600383015551600482015594518051949592949293610254939085019291909101906110e1565b50905050600180600082825461026a9190611677565b9091555050505050505050565b60606000805467ffffffffffffffff8111156102955761029561117a565b60405190808252806020026020018201604052801561031557816020015b6103026040518061012001604052806000815260200160608152602001606081526020016060815260200160608152602001600081526020016000815260200160608152602001606081525090565b8152602001906001900390816102b35790505b50905060005b6000548110156106fe5760046000828152602001908152602001600020604051806101200160405290816000820154815260200160018201805461035e9061168f565b80601f016020809104026020016040519081016040528092919081815260200182805461038a9061168f565b80156103d75780601f106103ac576101008083540402835291602001916103d7565b820191906000526020600020905b8154815290600101906020018083116103ba57829003601f168201915b505050505081526020016002820180546103f09061168f565b80601f016020809104026020016040519081016040528092919081815260200182805461041c9061168f565b80156104695780601f1061043e57610100808354040283529160200191610469565b820191906000526020600020905b81548152906001019060200180831161044c57829003601f168201915b505050505081526020016003820180546104829061168f565b80601f01602080910402602001604051908101604052809291908181526020018280546104ae9061168f565b80156104fb5780601f106104d0576101008083540402835291602001916104fb565b820191906000526020600020905b8154815290600101906020018083116104de57829003601f168201915b505050505081526020016004820180546105149061168f565b80601f01602080910402602001604051908101604052809291908181526020018280546105409061168f565b801561058d5780601f106105625761010080835404028352916020019161058d565b820191906000526020600020905b81548152906001019060200180831161057057829003601f168201915b5050505050815260200160058201548152602001600682015481526020016007820180546105ba9061168f565b80601f01602080910402602001604051908101604052809291908181526020018280546105e69061168f565b80156106335780601f1061060857610100808354040283529160200191610633565b820191906000526020600020905b81548152906001019060200180831161061657829003601f168201915b5050505050815260200160088201805461064c9061168f565b80601f01602080910402602001604051908101604052809291908181526020018280546106789061168f565b80156106c55780601f1061069a576101008083540402835291602001916106c5565b820191906000526020600020905b8154815290600101906020018083116106a857829003601f168201915b5050505050815250508282815181106106e0576106e06116dc565b602002602001018190525080806106f69061170b565b91505061031b565b50919050565b6000606080600060036000868152602001908152602001600020604051806060016040529081600082015481526020016001820180546107439061168f565b80601f016020809104026020016040519081016040528092919081815260200182805461076f9061168f565b80156107bc5780601f10610791576101008083540402835291602001916107bc565b820191906000526020600020905b81548152906001019060200180831161079f57829003601f168201915b505050505081526020016002820180546107d59061168f565b80601f01602080910402602001604051908101604052809291908181526020018280546108019061168f565b801561084e5780601f106108235761010080835404028352916020019161084e565b820191906000526020600020905b81548152906001019060200180831161083157829003601f168201915b5050509190925250508151602083015160409093015190989297509550909350505050565b6040805160608101825284815260208082018581528284018590526000888152600283529390932082518155925180519293926108b692600185019201906110e1565b50604082015180516108d29160028401916020909101906110e1565b50505050505050565b600080600080600060606000600560008981526020019081526020016000206040518060c001604052908160008201548152602001600182015481526020016002820160009054906101000a900460ff1615151515815260200160038201548152602001600482015481526020016005820180546109589061168f565b80601f01602080910402602001604051908101604052809291908181526020018280546109849061168f565b80156109d15780601f106109a6576101008083540402835291602001916109d1565b820191906000526020600020905b8154815290600101906020018083116109b457829003601f168201915b5050509190925250508151602083015160408401516060850151608086015160a090960151939e929d50909b5099509297509550909350505050565b6000606080600060026000868152602001908152602001600020604051806060016040529081600082015481526020016001820180546107439061168f565b6040805160608101825284815260208082018581528284018590526000888152600383529390932082518155925180519293926108b692600185019201906110e1565b610ade6040518061012001604052806000815260200160608152602001606081526020016060815260200160608152602001600081526020016000815260200160608152602001606081525090565b600460008381526020019081526020016000206040518061012001604052908160008201548152602001600182018054610b179061168f565b80601f0160208091040260200160405190810160405280929190818152602001828054610b439061168f565b8015610b905780601f10610b6557610100808354040283529160200191610b90565b820191906000526020600020905b815481529060010190602001808311610b7357829003601f168201915b50505050508152602001600282018054610ba99061168f565b80601f0160208091040260200160405190810160405280929190818152602001828054610bd59061168f565b8015610c225780601f10610bf757610100808354040283529160200191610c22565b820191906000526020600020905b815481529060010190602001808311610c0557829003601f168201915b50505050508152602001600382018054610c3b9061168f565b80601f0160208091040260200160405190810160405280929190818152602001828054610c679061168f565b8015610cb45780601f10610c8957610100808354040283529160200191610cb4565b820191906000526020600020905b815481529060010190602001808311610c9757829003601f168201915b50505050508152602001600482018054610ccd9061168f565b80601f0160208091040260200160405190810160405280929190818152602001828054610cf99061168f565b8015610d465780601f10610d1b57610100808354040283529160200191610d46565b820191906000526020600020905b815481529060010190602001808311610d2957829003601f168201915b505050505081526020016005820154815260200160068201548152602001600782018054610d739061168f565b80601f0160208091040260200160405190810160405280929190818152602001828054610d9f9061168f565b8015610dec5780601f10610dc157610100808354040283529160200191610dec565b820191906000526020600020905b815481529060010190602001808311610dcf57829003601f168201915b50505050508152602001600882018054610e059061168f565b80601f0160208091040260200160405190810160405280929190818152602001828054610e319061168f565b8015610e7e5780601f10610e5357610100808354040283529160200191610e7e565b820191906000526020600020905b815481529060010190602001808311610e6157829003601f168201915b5050505050815250509050919050565b606060005b6001548110156106fe576000818152600560208181526040808420815160c08101835281548152600182015493810193909352600281015460ff161515918301919091526003810154606083015260048101546080830152918201805491929160a084019190610f029061168f565b80601f0160208091040260200160405190810160405280929190818152602001828054610f2e9061168f565b8015610f7b5780601f10610f5057610100808354040283529160200191610f7b565b820191906000526020600020905b815481529060010190602001808311610f5e57829003601f168201915b505050505081525050905083816020015103610f9c5760a0015191506106fe565b5080610fa78161170b565b915050610e93565b60008054604080516101208101825282815260208082018d81528284018d9052606083018c9052608083018b905260a083018a905260c0830189905260e083018890526101008301879052848652600482529290942081518155915180519394919361102192600185019201906110e1565b506040820151805161103d9160028401916020909101906110e1565b50606082015180516110599160038401916020909101906110e1565b50608082015180516110759160048401916020909101906110e1565b5060a0820151600582015560c0820151600682015560e082015180516110a59160078401916020909101906110e1565b5061010082015180516110c29160088401916020909101906110e1565b50506000546110d391506001611677565b600055505050505050505050565b8280546110ed9061168f565b90600052602060002090601f01602090048101928261110f5760008555611155565b82601f1061112857805160ff1916838001178555611155565b82800160010185558215611155579182015b8281111561115557825182559160200191906001019061113a565b50611161929150611165565b5090565b5b808211156111615760008155600101611166565b7f4e487b7100000000000000000000000000000000000000000000000000000000600052604160045260246000fd5b600082601f8301126111ba57600080fd5b813567ffffffffffffffff808211156111d5576111d561117a565b604051601f8301601f19908116603f011681019082821181831017156111fd576111fd61117a565b8160405283815286602085880101111561121657600080fd5b836020870160208301376000602085830101528094505050505092915050565b600080600080600060a0868803121561124e57600080fd5b853594506020860135801515811461126557600080fd5b93506040860135925060608601359150608086013567ffffffffffffffff81111561128f57600080fd5b61129b888289016111a9565b9150509295509295909350565b6000815180845260005b818110156112ce576020818501810151868301820152016112b2565b818111156112e0576000602083870101525b50601f01601f19169290920160200192915050565b6000610120825184526020830151816020860152611315828601826112a8565b9150506040830151848203604086015261132f82826112a8565b9150506060830151848203606086015261134982826112a8565b9150506080830151848203608086015261136382826112a8565b91505060a083015160a085015260c083015160c085015260e083015184820360e086015261139182826112a8565b91505061010080840151858303828701526113ac83826112a8565b9695505050505050565b600060208083018184528085518083526040860191506040848202870101925083870160005b8281101561140a57603f198886030184526113f88583516112f5565b945092850192908501906001016113dc565b5092979650505050505050565b60006020828403121561142957600080fd5b5035919050565b83815260606020820152600061144960608301856112a8565b82810360408401526113ac81856112a8565b6000806000806080858703121561147157600080fd5b8435935060208501359250604085013567ffffffffffffffff8082111561149757600080fd5b6114a3888389016111a9565b935060608701359150808211156114b957600080fd5b506114c6878288016111a9565b91505092959194509250565b868152856020820152841515604082015283606082015282608082015260c060a0820152600061150560c08301846112a8565b98975050505050505050565b60208152600061152460208301846112f5565b9392505050565b60208152600061152460208301846112a8565b600080600080600080600080610100898b03121561155b57600080fd5b883567ffffffffffffffff8082111561157357600080fd5b61157f8c838d016111a9565b995060208b013591508082111561159557600080fd5b6115a18c838d016111a9565b985060408b01359150808211156115b757600080fd5b6115c38c838d016111a9565b975060608b01359150808211156115d957600080fd5b6115e58c838d016111a9565b965060808b0135955060a08b0135945060c08b013591508082111561160957600080fd5b6116158c838d016111a9565b935060e08b013591508082111561162b57600080fd5b506116388b828c016111a9565b9150509295985092959890939650565b7f4e487b7100000000000000000000000000000000000000000000000000000000600052601160045260246000fd5b6000821982111561168a5761168a611648565b500190565b6002810460018216806116a357607f821691505b6020821081036106fe577f4e487b7100000000000000000000000000000000000000000000000000000000600052602260045260246000fd5b7f4e487b7100000000000000000000000000000000000000000000000000000000600052603260045260246000fd5b60006001820161171d5761171d611648565b506001019056fea26469706673582212200950fd3bdea80a23cfd5cb390a67a21fc8117478a6b07df2ccce21a351fbb05664736f6c634300080e0033",
  "immutableReferences": {},
  "source": "//SPDX-License-Identifier:MIT\npragma solidity ^0.8.14;\n\n// smart contract starts here\ncontract Blockchain {\n    struct Developer {\n        uint256 id;\n        string name;\n        string date_of_joining;\n    }\n\n    struct MlResult {\n        uint256 serial_no;\n        string result;\n        string vulscore;\n        string nonvulscore;\n        string filename;\n        uint256 ptimestamp;\n        uint256 utimestamp;\n        string filepath;\n        string developer_id;\n    }\n\n    // This is the finally written on 21 June, 2022\n    struct ReviewResult {\n        uint256 serial_no;\n        uint256 ml_serial_no; // ML Serial Number form the ML result struct\n        bool astatus; // Code accepted status\n        uint256 stimestamp; // store to ipfs and accepted timestamp\n        uint256 lead_developer_id;\n        string filehash;\n    }\n\n    uint256 total_ml_result_count = 0;\n    uint256 total_review_result_count = 0;\n\n    mapping(uint256 => Developer) developers;\n    mapping(uint256 => Developer) lead_developers;\n    mapping(uint256 => MlResult) ml_results;\n    mapping(uint256 => ReviewResult) reviewed;\n\n    // add Developers\n    function addDeveloper(\n        uint256 blockchain_address,\n        uint256 id,\n        string memory name,\n        string memory date_of_joining\n    ) public {\n        developers[blockchain_address] = Developer(id, name, date_of_joining);\n    }\n\n    // get Developers\n    function getDeveloper(uint256 blockchain_address)\n        public\n        view\n        returns (\n            uint256,\n            string memory,\n            string memory\n        )\n    {\n        Developer memory developer = developers[blockchain_address];\n        return (developer.id, developer.name, developer.date_of_joining);\n    }\n\n    // add Lead Developers\n    function addLeadDeveloper(\n        uint256 blockchain_address,\n        uint256 id,\n        string memory name,\n        string memory date_of_joining\n    ) public {\n        lead_developers[blockchain_address] = Developer(\n            id,\n            name,\n            date_of_joining\n        );\n    }\n\n    // get Lead Developers\n    function getLeadDeveloper(uint256 blockchain_address)\n        public\n        view\n        returns (\n            uint256,\n            string memory,\n            string memory\n        )\n    {\n        Developer memory ld = lead_developers[blockchain_address];\n        return (ld.id, ld.name, ld.date_of_joining);\n    }\n\n    // test result from ML to UI\n    function addMlResult(\n        string memory result,\n        string memory vulscore,\n        string memory nonvulscore,\n        string memory filename,\n        uint256 ptimestamp,\n        uint256 utimestamp,\n        string memory filepath,\n        string memory developer_id\n    ) public {\n        uint256 serial_no = total_ml_result_count;\n        ml_results[total_ml_result_count] = MlResult(\n            serial_no,\n            result,\n            vulscore,\n            nonvulscore,\n            filename,\n            ptimestamp,\n            utimestamp,\n            filepath,\n            developer_id\n        );\n\n        total_ml_result_count = total_ml_result_count + 1;\n    }\n\n    //return all result for viewmore\n    function getAllMlResult() public view returns (MlResult[] memory) {\n        MlResult[] memory details = new MlResult[](total_ml_result_count);\n        for (uint256 i = 0; i < total_ml_result_count; i++) {\n            details[i] = ml_results[i];\n        }\n        return details;\n    }\n\n    function getMlResultBySerialNo(uint256 serial_no)\n        public\n        view\n        returns (MlResult memory)\n    {\n        return ml_results[serial_no];\n    }\n\n    function reviewResulttoBC(\n        uint256 ml_serial_no, // ML Serial Number form the ML result struct\n        bool astatus, // Code accepted status\n        uint256 stimestamp, // store to ipfs and accepted timestamp\n        uint256 lead_developer_id,\n        string memory filehash\n    ) public {\n        uint256 serial_no = total_review_result_count;\n        reviewed[serial_no] = ReviewResult(\n            serial_no,\n            ml_serial_no,\n            astatus,\n            stimestamp,\n            lead_developer_id,\n            filehash\n        );\n        total_review_result_count += 1;\n    }\n\n    function getReviewResult(uint256 serial_no)\n        public\n        view\n        returns (\n            uint256 _serial_no,\n            uint256 ml_serial_no,\n            bool astatus,\n            uint256 stimestamp,\n            uint256 lead_developer_id,\n            string memory filehash\n        )\n    {\n        ReviewResult memory rr = reviewed[serial_no];\n        return (\n            rr.serial_no,\n            rr.ml_serial_no,\n            rr.astatus,\n            rr.stimestamp,\n            rr.lead_developer_id,\n            rr.filehash\n        );\n    }\n\n    function getResultByMlSerialNo(uint256 _ml_serial_no)\n        public\n        view\n        returns (string memory filehash)\n    {\n        for (uint256 i = 0; i < total_review_result_count; i++) {\n            ReviewResult memory rr = reviewed[i];\n            if (rr.ml_serial_no == _ml_serial_no) {\n                filehash = rr.filehash;\n                break;\n            }\n        }\n    }\n}\n",
  "sourcePath": "/Users/jayamhy/scvdp/contracts/Blockchain.sol",
  "compiler": {
    "name": "solc",
    "version": "0.8.14+commit.80d49f37.Emscripten.clang"
  },
  "schemaVersion": "3.4.7",
  "updatedAt": "2022-06-23T19:57:59.889Z",
  "networkType": "ethereum",
  "devdoc": {
    "kind": "dev",
    "methods": {},
    "version": 1
  },
  "userdoc": {
    "kind": "user",
    "methods": {},
    "version": 1
  }
}