{
  "contractName": "Blockchain",
  "abi": [
    {
      "inputs": [
        {
          "internalType": "uint256",
          "name": "_developer_address",
          "type": "uint256"
        },
        {
          "internalType": "uint256",
          "name": "d_id",
          "type": "uint256"
        },
        {
          "internalType": "string",
          "name": "d_name",
          "type": "string"
        },
        {
          "internalType": "string",
          "name": "d_doj",
          "type": "string"
        }
      ],
      "name": "addDeveloper",
      "outputs": [],
      "stateMutability": "nonpayable",
      "type": "function"
    },
    {
      "inputs": [
        {
          "internalType": "uint256",
          "name": "_developer_address",
          "type": "uint256"
        }
      ],
      "name": "getDeveloper",
      "outputs": [
        {
          "internalType": "uint256",
          "name": "",
          "type": "uint256"
        },
        {
          "internalType": "string",
          "name": "",
          "type": "string"
        },
        {
          "internalType": "string",
          "name": "",
          "type": "string"
        }
      ],
      "stateMutability": "view",
      "type": "function",
      "constant": true
    },
    {
      "inputs": [
        {
          "internalType": "uint256",
          "name": "_leaddeveloper_address",
          "type": "uint256"
        },
        {
          "internalType": "uint256",
          "name": "ld_id",
          "type": "uint256"
        },
        {
          "internalType": "string",
          "name": "ld_name",
          "type": "string"
        },
        {
          "internalType": "string",
          "name": "ld_doj",
          "type": "string"
        }
      ],
      "name": "addLeadDeveloper",
      "outputs": [],
      "stateMutability": "nonpayable",
      "type": "function"
    },
    {
      "inputs": [
        {
          "internalType": "uint256",
          "name": "_leaddeveloper_address",
          "type": "uint256"
        }
      ],
      "name": "getLeadDeveloper",
      "outputs": [
        {
          "internalType": "uint256",
          "name": "",
          "type": "uint256"
        },
        {
          "internalType": "string",
          "name": "",
          "type": "string"
        },
        {
          "internalType": "string",
          "name": "",
          "type": "string"
        }
      ],
      "stateMutability": "view",
      "type": "function",
      "constant": true
    },
    {
      "inputs": [
        {
          "internalType": "uint256",
          "name": "_blockchain_address",
          "type": "uint256"
        },
        {
          "internalType": "uint256",
          "name": "bca_id",
          "type": "uint256"
        },
        {
          "internalType": "string",
          "name": "bca_name",
          "type": "string"
        },
        {
          "internalType": "string",
          "name": "bca_doj",
          "type": "string"
        }
      ],
      "name": "addBlockchainAdmin",
      "outputs": [],
      "stateMutability": "nonpayable",
      "type": "function"
    },
    {
      "inputs": [
        {
          "internalType": "uint256",
          "name": "_blockchain_address",
          "type": "uint256"
        }
      ],
      "name": "getBlockchainAdmin",
      "outputs": [
        {
          "internalType": "uint256",
          "name": "",
          "type": "uint256"
        },
        {
          "internalType": "string",
          "name": "",
          "type": "string"
        },
        {
          "internalType": "string",
          "name": "",
          "type": "string"
        }
      ],
      "stateMutability": "view",
      "type": "function",
      "constant": true
    },
    {
      "inputs": [
        {
          "internalType": "uint256",
          "name": "_superadmin_address",
          "type": "uint256"
        },
        {
          "internalType": "uint256",
          "name": "sa_id",
          "type": "uint256"
        },
        {
          "internalType": "string",
          "name": "sa_name",
          "type": "string"
        },
        {
          "internalType": "string",
          "name": "sa_doj",
          "type": "string"
        }
      ],
      "name": "addSuperAdmin",
      "outputs": [],
      "stateMutability": "nonpayable",
      "type": "function"
    },
    {
      "inputs": [
        {
          "internalType": "uint256",
          "name": "_superadmin_address",
          "type": "uint256"
        }
      ],
      "name": "getSuperAdmin",
      "outputs": [
        {
          "internalType": "uint256",
          "name": "",
          "type": "uint256"
        },
        {
          "internalType": "string",
          "name": "",
          "type": "string"
        },
        {
          "internalType": "string",
          "name": "",
          "type": "string"
        }
      ],
      "stateMutability": "view",
      "type": "function",
      "constant": true
    },
    {
      "inputs": [
        {
          "internalType": "uint256",
          "name": "_developer_address",
          "type": "uint256"
        },
        {
          "internalType": "string",
          "name": "scode",
          "type": "string"
        },
        {
          "internalType": "uint256",
          "name": "developer_id",
          "type": "uint256"
        },
        {
          "internalType": "string",
          "name": "utimestamp",
          "type": "string"
        }
      ],
      "name": "uploadCode",
      "outputs": [],
      "stateMutability": "nonpayable",
      "type": "function"
    },
    {
      "inputs": [
        {
          "internalType": "uint256",
          "name": "_leaddeveloper_address",
          "type": "uint256"
        }
      ],
      "name": "ckeckUploadedCode",
      "outputs": [
        {
          "internalType": "string",
          "name": "",
          "type": "string"
        },
        {
          "internalType": "uint256",
          "name": "",
          "type": "uint256"
        },
        {
          "internalType": "string",
          "name": "",
          "type": "string"
        }
      ],
      "stateMutability": "view",
      "type": "function",
      "constant": true
    },
    {
      "inputs": [
        {
          "internalType": "uint256",
          "name": "_leaddeveloper_address",
          "type": "uint256"
        },
        {
          "internalType": "string",
          "name": "tcode",
          "type": "string"
        }
      ],
      "name": "sendCodeForTesting",
      "outputs": [],
      "stateMutability": "nonpayable",
      "type": "function"
    },
    {
      "inputs": [
        {
          "internalType": "uint256",
          "name": "_leaddeveloper_address",
          "type": "uint256"
        }
      ],
      "name": "checkSentCode",
      "outputs": [
        {
          "internalType": "string",
          "name": "",
          "type": "string"
        }
      ],
      "stateMutability": "view",
      "type": "function",
      "constant": true
    },
    {
      "inputs": [
        {
          "internalType": "uint256",
          "name": "_blockchainadmin_address",
          "type": "uint256"
        },
        {
          "internalType": "string",
          "name": "result",
          "type": "string"
        },
        {
          "internalType": "string",
          "name": "ptimestamp",
          "type": "string"
        },
        {
          "internalType": "string",
          "name": "vulscore",
          "type": "string"
        }
      ],
      "name": "workMlResult",
      "outputs": [],
      "stateMutability": "nonpayable",
      "type": "function"
    },
    {
      "inputs": [
        {
          "internalType": "uint256",
          "name": "_blockchainadmin_address",
          "type": "uint256"
        }
      ],
      "name": "getResults",
      "outputs": [
        {
          "internalType": "string",
          "name": "",
          "type": "string"
        },
        {
          "internalType": "string",
          "name": "",
          "type": "string"
        },
        {
          "internalType": "string",
          "name": "",
          "type": "string"
        }
      ],
      "stateMutability": "view",
      "type": "function",
      "constant": true
    },
    {
      "inputs": [
        {
          "internalType": "uint256",
          "name": "_leaddeveloper_address",
          "type": "uint256"
        },
        {
          "internalType": "uint256",
          "name": "developer_id",
          "type": "uint256"
        },
        {
          "internalType": "string",
          "name": "code",
          "type": "string"
        },
        {
          "internalType": "string",
          "name": "utimestamp",
          "type": "string"
        },
        {
          "internalType": "string",
          "name": "result",
          "type": "string"
        },
        {
          "internalType": "string",
          "name": "ptimestamp",
          "type": "string"
        },
        {
          "internalType": "string",
          "name": "vulscore",
          "type": "string"
        },
        {
          "internalType": "uint256",
          "name": "leaddeveloper_id",
          "type": "uint256"
        },
        {
          "internalType": "string",
          "name": "rtimestamp",
          "type": "string"
        }
      ],
      "name": "sendResultIPFS",
      "outputs": [],
      "stateMutability": "nonpayable",
      "type": "function"
    },
    {
      "inputs": [
        {
          "internalType": "uint256",
          "name": "_leaddeveloper_address",
          "type": "uint256"
        }
      ],
      "name": "CheckResultIPFS",
      "outputs": [
        {
          "internalType": "uint256",
          "name": "",
          "type": "uint256"
        },
        {
          "internalType": "string",
          "name": "",
          "type": "string"
        },
        {
          "internalType": "string",
          "name": "",
          "type": "string"
        },
        {
          "internalType": "string",
          "name": "",
          "type": "string"
        },
        {
          "internalType": "string",
          "name": "",
          "type": "string"
        },
        {
          "internalType": "string",
          "name": "",
          "type": "string"
        },
        {
          "internalType": "uint256",
          "name": "",
          "type": "uint256"
        },
        {
          "internalType": "string",
          "name": "",
          "type": "string"
        }
      ],
      "stateMutability": "view",
      "type": "function",
      "constant": true
    },
    {
      "inputs": [
        {
          "internalType": "uint256",
          "name": "_leaddeveloper_address",
          "type": "uint256"
        },
        {
          "internalType": "uint256",
          "name": "developer_id",
          "type": "uint256"
        },
        {
          "internalType": "string",
          "name": "code",
          "type": "string"
        },
        {
          "internalType": "string",
          "name": "utimestamp",
          "type": "string"
        },
        {
          "internalType": "string",
          "name": "result",
          "type": "string"
        },
        {
          "internalType": "string",
          "name": "ptimestamp",
          "type": "string"
        },
        {
          "internalType": "string",
          "name": "vulscore",
          "type": "string"
        },
        {
          "internalType": "uint256",
          "name": "leaddeveloper_id",
          "type": "uint256"
        },
        {
          "internalType": "string",
          "name": "rtimestamp",
          "type": "string"
        },
        {
          "internalType": "string",
          "name": "filehash",
          "type": "string"
        },
        {
          "internalType": "string",
          "name": "gtimestamp",
          "type": "string"
        }
      ],
      "name": "fileHashGen",
      "outputs": [],
      "stateMutability": "nonpayable",
      "type": "function"
    },
    {
      "inputs": [
        {
          "internalType": "uint256",
          "name": "_leaddeveloper_address",
          "type": "uint256"
        }
      ],
      "name": "checkFileHashGen",
      "outputs": [
        {
          "internalType": "uint256",
          "name": "",
          "type": "uint256"
        },
        {
          "internalType": "string",
          "name": "",
          "type": "string"
        },
        {
          "internalType": "string",
          "name": "",
          "type": "string"
        },
        {
          "internalType": "string",
          "name": "",
          "type": "string"
        },
        {
          "internalType": "string",
          "name": "",
          "type": "string"
        },
        {
          "internalType": "string",
          "name": "",
          "type": "string"
        },
        {
          "internalType": "uint256",
          "name": "",
          "type": "uint256"
        },
        {
          "internalType": "string",
          "name": "",
          "type": "string"
        },
        {
          "internalType": "string",
          "name": "",
          "type": "string"
        },
        {
          "internalType": "string",
          "name": "",
          "type": "string"
        }
      ],
      "stateMutability": "view",
      "type": "function",
      "constant": true
    },
    {
      "inputs": [
        {
          "internalType": "uint256",
          "name": "_superadmin_address",
          "type": "uint256"
        },
        {
          "internalType": "uint256",
          "name": "leaddeveloper_id",
          "type": "uint256"
        },
        {
          "internalType": "uint256",
          "name": "developer_id",
          "type": "uint256"
        },
        {
          "internalType": "string",
          "name": "code",
          "type": "string"
        },
        {
          "internalType": "string",
          "name": "utimestamp",
          "type": "string"
        },
        {
          "internalType": "string",
          "name": "result",
          "type": "string"
        },
        {
          "internalType": "string",
          "name": "ptimestamp",
          "type": "string"
        },
        {
          "internalType": "string",
          "name": "vulscore",
          "type": "string"
        },
        {
          "internalType": "string",
          "name": "rtimestamp",
          "type": "string"
        },
        {
          "internalType": "string",
          "name": "filehash",
          "type": "string"
        },
        {
          "internalType": "string",
          "name": "gtimestamp",
          "type": "string"
        },
        {
          "internalType": "string",
          "name": "pushtimestamp",
          "type": "string"
        }
      ],
      "name": "FinalBlockchain",
      "outputs": [],
      "stateMutability": "nonpayable",
      "type": "function"
    },
    {
      "inputs": [
        {
          "internalType": "uint256",
          "name": "_superadmin_address",
          "type": "uint256"
        }
      ],
      "name": "FinalBlockchain",
      "outputs": [
        {
          "internalType": "uint256",
          "name": "leaddeveloper_id",
          "type": "uint256"
        },
        {
          "internalType": "uint256",
          "name": "developer_id",
          "type": "uint256"
        },
        {
          "internalType": "string",
          "name": "code",
          "type": "string"
        },
        {
          "internalType": "string",
          "name": "utimestamp",
          "type": "string"
        },
        {
          "internalType": "string",
          "name": "result",
          "type": "string"
        },
        {
          "internalType": "string",
          "name": "ptimestamp",
          "type": "string"
        },
        {
          "internalType": "string",
          "name": "vulscore",
          "type": "string"
        },
        {
          "internalType": "string",
          "name": "rtimestamp",
          "type": "string"
        },
        {
          "internalType": "string",
          "name": "filehash",
          "type": "string"
        },
        {
          "internalType": "string",
          "name": "gtimestamp",
          "type": "string"
        },
        {
          "internalType": "string",
          "name": "pushtimestamp",
          "type": "string"
        }
      ],
      "stateMutability": "view",
      "type": "function",
      "constant": true
    }
  ],
  "bytecode": "0x608060405234801561001057600080fd5b506127a5806100206000396000f3fe608060405234801561001057600080fd5b5060043610610149576000357c01000000000000000000000000000000000000000000000000000000009004806381a60c0d116100ca578063b4fc83d31161008e578063b4fc83d3146102f1578063cdd8485514610304578063d5fa225b14610317578063e5d6a4731461032a578063f87aed8b1461033d57600080fd5b806381a60c0d146102565780638294aa16146102785780638386499b146102a15780639ac59151146102b4578063b04e7bbb146102c757600080fd5b806348af8fc71161011157806348af8fc7146101d65780635cb3e8ba146101e957806366c583aa1461021057806379ae0188146102235780637a276bb61461024357600080fd5b806303839b141461014e57806304fb75cd146101635780632e34d76e1461018e5780633493205c146101b0578063409027a8146101c3575b600080fd5b61016161015c366004611e19565b610350565b005b610176610171366004611e60565b610387565b60405161018593929190611ec6565b60405180910390f35b6101a161019c366004611e60565b6104f7565b60405161018593929190611efb565b6101a16101be366004611e60565b6105c8565b6101616101d1366004611f26565b610607565b6101616101e4366004611f26565b61066e565b6101fc6101f7366004611e60565b6106b1565b604051610185989796959493929190611f9d565b61016161021e366004612030565b610aa6565b610236610231366004611e60565b610c29565b6040516101859190612200565b6101a1610251366004611e60565b610ce7565b610269610264366004611e60565b610d25565b6040516101859392919061221a565b61028b610286366004611e60565b610dec565b6040516101859a99989796959493929190612253565b6101616102af366004612312565b61131a565b6101616102c2366004611f26565b61137a565b6102da6102d5366004611e60565b6113c0565b6040516101859b9a99989796959493929190612370565b6101616102ff366004611f26565b61198a565b6101a1610312366004611e60565b6119cd565b610161610325366004612445565b611a0c565b61016161033836600461249c565b611a62565b61016161034b3660046125b0565b611b6d565b60408051602080820183528382526000858152600582529290922081518051929391926103809284920190611cc4565b5050505050565b6060600060606000600460008681526020019081526020016000206040518060600160405290816000820180546103bd9061271c565b80601f01602080910402602001604051908101604052809291908181526020018280546103e99061271c565b80156104365780601f1061040b57610100808354040283529160200191610436565b820191906000526020600020905b81548152906001019060200180831161041957829003601f168201915b50505050508152602001600182015481526020016002820180546104599061271c565b80601f01602080910402602001604051908101604052809291908181526020018280546104859061271c565b80156104d25780601f106104a7576101008083540402835291602001916104d2565b820191906000526020600020905b8154815290600101906020018083116104b557829003601f168201915b5050509190925250508151602083015160409093015190989297509550909350505050565b6000606080600060016000868152602001908152602001600020604051806060016040529081600082015481526020016001820180546105369061271c565b80601f01602080910402602001604051908101604052809291908181526020018280546105629061271c565b80156105af5780601f10610584576101008083540402835291602001916105af565b820191906000526020600020905b81548152906001019060200180831161059257829003601f168201915b505050505081526020016002820180546104599061271c565b6000606080600060036000868152602001908152602001600020604051806060016040529081600082015481526020016001820180546105369061271c565b60408051606081018252848152602080820185815282840185905260008881528083529390932082518155925180519293926106499260018501920190611cc4565b5060408201518051610665916002840191602090910190611cc4565b50505050505050565b6040805160608101825284815260208082018581528284018590526000888152600383529390932082518155925180519293926106499260018501920190611cc4565b60006060806060806060600060606000600760008b815260200190815260200160002060405180610100016040529081600082015481526020016001820180546106fa9061271c565b80601f01602080910402602001604051908101604052809291908181526020018280546107269061271c565b80156107735780601f1061074857610100808354040283529160200191610773565b820191906000526020600020905b81548152906001019060200180831161075657829003601f168201915b5050505050815260200160028201805461078c9061271c565b80601f01602080910402602001604051908101604052809291908181526020018280546107b89061271c565b80156108055780601f106107da57610100808354040283529160200191610805565b820191906000526020600020905b8154815290600101906020018083116107e857829003601f168201915b5050505050815260200160038201805461081e9061271c565b80601f016020809104026020016040519081016040528092919081815260200182805461084a9061271c565b80156108975780601f1061086c57610100808354040283529160200191610897565b820191906000526020600020905b81548152906001019060200180831161087a57829003601f168201915b505050505081526020016004820180546108b09061271c565b80601f01602080910402602001604051908101604052809291908181526020018280546108dc9061271c565b80156109295780601f106108fe57610100808354040283529160200191610929565b820191906000526020600020905b81548152906001019060200180831161090c57829003601f168201915b505050505081526020016005820180546109429061271c565b80601f016020809104026020016040519081016040528092919081815260200182805461096e9061271c565b80156109bb5780601f10610990576101008083540402835291602001916109bb565b820191906000526020600020905b81548152906001019060200180831161099e57829003601f168201915b50505050508152602001600682015481526020016007820180546109de9061271c565b80601f0160208091040260200160405190810160405280929190818152602001828054610a0a9061271c565b8015610a575780601f10610a2c57610100808354040283529160200191610a57565b820191906000526020600020905b815481529060010190602001808311610a3a57829003601f168201915b5050505050815250509050806000015181602001518260400151836060015184608001518560a001518660c001518760e001519850985098509850985098509850985050919395975091939597565b6040518061016001604052808c81526020018b81526020018a815260200189815260200188815260200187815260200186815260200185815260200184815260200183815260200182815250600960008e815260200190815260200160002060008201518160000155602082015181600101556040820151816002019080519060200190610b35929190611cc4565b5060608201518051610b51916003840191602090910190611cc4565b5060808201518051610b6d916004840191602090910190611cc4565b5060a08201518051610b89916005840191602090910190611cc4565b5060c08201518051610ba5916006840191602090910190611cc4565b5060e08201518051610bc1916007840191602090910190611cc4565b506101008201518051610bde916008840191602090910190611cc4565b506101208201518051610bfb916009840191602090910190611cc4565b506101408201518051610c1891600a840191602090910190611cc4565b505050505050505050505050505050565b6060600060056000848152602001908152602001600020604051806020016040529081600082018054610c5b9061271c565b80601f0160208091040260200160405190810160405280929190818152602001828054610c879061271c565b8015610cd45780601f10610ca957610100808354040283529160200191610cd4565b820191906000526020600020905b815481529060010190602001808311610cb757829003601f168201915b5050509190925250509051949350505050565b60006060806000806000868152602001908152602001600020604051806060016040529081600082015481526020016001820180546105369061271c565b6060806060600060066000868152602001908152602001600020604051806060016040529081600082018054610d5a9061271c565b80601f0160208091040260200160405190810160405280929190818152602001828054610d869061271c565b8015610dd35780601f10610da857610100808354040283529160200191610dd3565b820191906000526020600020905b815481529060010190602001808311610db657829003601f168201915b505050505081526020016001820180546105369061271c565b60006060806060806060600060608060606000600860008d81526020019081526020016000206040518061014001604052908160008201548152602001600182018054610e389061271c565b80601f0160208091040260200160405190810160405280929190818152602001828054610e649061271c565b8015610eb15780601f10610e8657610100808354040283529160200191610eb1565b820191906000526020600020905b815481529060010190602001808311610e9457829003601f168201915b50505050508152602001600282018054610eca9061271c565b80601f0160208091040260200160405190810160405280929190818152602001828054610ef69061271c565b8015610f435780601f10610f1857610100808354040283529160200191610f43565b820191906000526020600020905b815481529060010190602001808311610f2657829003601f168201915b50505050508152602001600382018054610f5c9061271c565b80601f0160208091040260200160405190810160405280929190818152602001828054610f889061271c565b8015610fd55780601f10610faa57610100808354040283529160200191610fd5565b820191906000526020600020905b815481529060010190602001808311610fb857829003601f168201915b50505050508152602001600482018054610fee9061271c565b80601f016020809104026020016040519081016040528092919081815260200182805461101a9061271c565b80156110675780601f1061103c57610100808354040283529160200191611067565b820191906000526020600020905b81548152906001019060200180831161104a57829003601f168201915b505050505081526020016005820180546110809061271c565b80601f01602080910402602001604051908101604052809291908181526020018280546110ac9061271c565b80156110f95780601f106110ce576101008083540402835291602001916110f9565b820191906000526020600020905b8154815290600101906020018083116110dc57829003601f168201915b505050505081526020016006820154815260200160078201805461111c9061271c565b80601f01602080910402602001604051908101604052809291908181526020018280546111489061271c565b80156111955780601f1061116a57610100808354040283529160200191611195565b820191906000526020600020905b81548152906001019060200180831161117857829003601f168201915b505050505081526020016008820180546111ae9061271c565b80601f01602080910402602001604051908101604052809291908181526020018280546111da9061271c565b80156112275780601f106111fc57610100808354040283529160200191611227565b820191906000526020600020905b81548152906001019060200180831161120a57829003601f168201915b505050505081526020016009820180546112409061271c565b80601f016020809104026020016040519081016040528092919081815260200182805461126c9061271c565b80156112b95780601f1061128e576101008083540402835291602001916112b9565b820191906000526020600020905b81548152906001019060200180831161129c57829003601f168201915b5050505050815250509050806000015181602001518260400151836060015184608001518560a001518660c001518760e001518861010001518961012001519a509a509a509a509a509a509a509a509a509a50509193959799509193959799565b6040805160608101825284815260208082018590528183018490526000878152600482529290922081518051929391926113579284920190611cc4565b506020828101516001830155604083015180516106659260028501920190611cc4565b6040805160608101825284815260208082018581528284018590526000888152600180845294902083518155905180519394919361064993928501929190910190611cc4565b60008060608060608060608060608060606000600960008e81526020019081526020016000206040518061016001604052908160008201548152602001600182015481526020016002820180546114169061271c565b80601f01602080910402602001604051908101604052809291908181526020018280546114429061271c565b801561148f5780601f106114645761010080835404028352916020019161148f565b820191906000526020600020905b81548152906001019060200180831161147257829003601f168201915b505050505081526020016003820180546114a89061271c565b80601f01602080910402602001604051908101604052809291908181526020018280546114d49061271c565b80156115215780601f106114f657610100808354040283529160200191611521565b820191906000526020600020905b81548152906001019060200180831161150457829003601f168201915b5050505050815260200160048201805461153a9061271c565b80601f01602080910402602001604051908101604052809291908181526020018280546115669061271c565b80156115b35780601f10611588576101008083540402835291602001916115b3565b820191906000526020600020905b81548152906001019060200180831161159657829003601f168201915b505050505081526020016005820180546115cc9061271c565b80601f01602080910402602001604051908101604052809291908181526020018280546115f89061271c565b80156116455780601f1061161a57610100808354040283529160200191611645565b820191906000526020600020905b81548152906001019060200180831161162857829003601f168201915b5050505050815260200160068201805461165e9061271c565b80601f016020809104026020016040519081016040528092919081815260200182805461168a9061271c565b80156116d75780601f106116ac576101008083540402835291602001916116d7565b820191906000526020600020905b8154815290600101906020018083116116ba57829003601f168201915b505050505081526020016007820180546116f09061271c565b80601f016020809104026020016040519081016040528092919081815260200182805461171c9061271c565b80156117695780601f1061173e57610100808354040283529160200191611769565b820191906000526020600020905b81548152906001019060200180831161174c57829003601f168201915b505050505081526020016008820180546117829061271c565b80601f01602080910402602001604051908101604052809291908181526020018280546117ae9061271c565b80156117fb5780601f106117d0576101008083540402835291602001916117fb565b820191906000526020600020905b8154815290600101906020018083116117de57829003601f168201915b505050505081526020016009820180546118149061271c565b80601f01602080910402602001604051908101604052809291908181526020018280546118409061271c565b801561188d5780601f106118625761010080835404028352916020019161188d565b820191906000526020600020905b81548152906001019060200180831161187057829003601f168201915b50505050508152602001600a820180546118a69061271c565b80601f01602080910402602001604051908101604052809291908181526020018280546118d29061271c565b801561191f5780601f106118f45761010080835404028352916020019161191f565b820191906000526020600020905b81548152906001019060200180831161190257829003601f168201915b5050505050815250509050806000015181602001518260400151836060015184608001518560a001518660c001518760e001518861010001518961012001518a61014001519b509b509b509b509b509b509b509b509b509b509b505091939597999b90929496989a50565b6040805160608101825284815260208082018581528284018590526000888152600283529390932082518155925180519293926106499260018501920190611cc4565b6000606080600060026000868152602001908152602001600020604051806060016040529081600082015481526020016001820180546105369061271c565b604080516060810182528481526020808201859052818301849052600087815260068252929092208151805192939192611a499284920190611cc4565b5060208281015180516106499260018501920190611cc4565b604080516101008101825289815260208082018a81528284018a9052606083018990526080830188905260a0830187905260c0830186905260e0830185905260008d815260078352939093208251815592518051929392611ac99260018501920190611cc4565b5060408201518051611ae5916002840191602090910190611cc4565b5060608201518051611b01916003840191602090910190611cc4565b5060808201518051611b1d916004840191602090910190611cc4565b5060a08201518051611b39916005840191602090910190611cc4565b5060c0820151600682015560e08201518051611b5f916007840191602090910190611cc4565b505050505050505050505050565b60408051610140810182528b815260208082018c81528284018c9052606083018b9052608083018a905260a0830189905260c0830188905260e083018790526101008301869052610120830185905260008f815260088352939093208251815592518051929392611be49260018501920190611cc4565b5060408201518051611c00916002840191602090910190611cc4565b5060608201518051611c1c916003840191602090910190611cc4565b5060808201518051611c38916004840191602090910190611cc4565b5060a08201518051611c54916005840191602090910190611cc4565b5060c0820151600682015560e08201518051611c7a916007840191602090910190611cc4565b506101008201518051611c97916008840191602090910190611cc4565b506101208201518051611cb4916009840191602090910190611cc4565b5050505050505050505050505050565b828054611cd09061271c565b90600052602060002090601f016020900481019282611cf25760008555611d38565b82601f10611d0b57805160ff1916838001178555611d38565b82800160010185558215611d38579182015b82811115611d38578251825591602001919060010190611d1d565b50611d44929150611d48565b5090565b5b80821115611d445760008155600101611d49565b7f4e487b7100000000000000000000000000000000000000000000000000000000600052604160045260246000fd5b600082601f830112611d9d57600080fd5b813567ffffffffffffffff80821115611db857611db8611d5d565b604051601f8301601f19908116603f01168101908282118183101715611de057611de0611d5d565b81604052838152866020858801011115611df957600080fd5b836020870160208301376000602085830101528094505050505092915050565b60008060408385031215611e2c57600080fd5b82359150602083013567ffffffffffffffff811115611e4a57600080fd5b611e5685828601611d8c565b9150509250929050565b600060208284031215611e7257600080fd5b5035919050565b6000815180845260005b81811015611e9f57602081850181015186830182015201611e83565b81811115611eb1576000602083870101525b50601f01601f19169290920160200192915050565b606081526000611ed96060830186611e79565b8460208401528281036040840152611ef18185611e79565b9695505050505050565b838152606060208201526000611f146060830185611e79565b8281036040840152611ef18185611e79565b60008060008060808587031215611f3c57600080fd5b8435935060208501359250604085013567ffffffffffffffff80821115611f6257600080fd5b611f6e88838901611d8c565b93506060870135915080821115611f8457600080fd5b50611f9187828801611d8c565b91505092959194509250565b60006101008a8352806020840152611fb78184018b611e79565b90508281036040840152611fcb818a611e79565b90508281036060840152611fdf8189611e79565b90508281036080840152611ff38188611e79565b905082810360a08401526120078187611e79565b90508460c084015282810360e08401526120218185611e79565b9b9a5050505050505050505050565b6000806000806000806000806000806000806101808d8f03121561205357600080fd5b8c359b5060208d01359a5060408d0135995067ffffffffffffffff60608e0135111561207e57600080fd5b61208e8e60608f01358f01611d8c565b985067ffffffffffffffff60808e013511156120a957600080fd5b6120b98e60808f01358f01611d8c565b975067ffffffffffffffff60a08e013511156120d457600080fd5b6120e48e60a08f01358f01611d8c565b965067ffffffffffffffff60c08e013511156120ff57600080fd5b61210f8e60c08f01358f01611d8c565b955067ffffffffffffffff60e08e0135111561212a57600080fd5b61213a8e60e08f01358f01611d8c565b945067ffffffffffffffff6101008e0135111561215657600080fd5b6121678e6101008f01358f01611d8c565b935067ffffffffffffffff6101208e0135111561218357600080fd5b6121948e6101208f01358f01611d8c565b925067ffffffffffffffff6101408e013511156121b057600080fd5b6121c18e6101408f01358f01611d8c565b915067ffffffffffffffff6101608e013511156121dd57600080fd5b6121ee8e6101608f01358f01611d8c565b90509295989b509295989b509295989b565b6020815260006122136020830184611e79565b9392505050565b60608152600061222d6060830186611e79565b828103602084015261223f8186611e79565b90508281036040840152611ef18185611e79565b60006101408c835280602084015261226d8184018d611e79565b90508281036040840152612281818c611e79565b90508281036060840152612295818b611e79565b905082810360808401526122a9818a611e79565b905082810360a08401526122bd8189611e79565b90508660c084015282810360e08401526122d78187611e79565b90508281036101008401526122ec8186611e79565b90508281036101208401526123018185611e79565b9d9c50505050505050505050505050565b6000806000806080858703121561232857600080fd5b84359350602085013567ffffffffffffffff8082111561234757600080fd5b61235388838901611d8c565b9450604087013593506060870135915080821115611f8457600080fd5b60006101608d83528c60208401528060408401526123908184018d611e79565b905082810360608401526123a4818c611e79565b905082810360808401526123b8818b611e79565b905082810360a08401526123cc818a611e79565b905082810360c08401526123e08189611e79565b905082810360e08401526123f48188611e79565b90508281036101008401526124098187611e79565b905082810361012084015261241e8186611e79565b90508281036101408401526124338185611e79565b9e9d5050505050505050505050505050565b6000806000806080858703121561245b57600080fd5b84359350602085013567ffffffffffffffff8082111561247a57600080fd5b61248688838901611d8c565b94506040870135915080821115611f6257600080fd5b60008060008060008060008060006101208a8c0312156124bb57600080fd5b8935985060208a0135975060408a013567ffffffffffffffff808211156124e157600080fd5b6124ed8d838e01611d8c565b985060608c013591508082111561250357600080fd5b61250f8d838e01611d8c565b975060808c013591508082111561252557600080fd5b6125318d838e01611d8c565b965060a08c013591508082111561254757600080fd5b6125538d838e01611d8c565b955060c08c013591508082111561256957600080fd5b6125758d838e01611d8c565b945060e08c013593506101008c013591508082111561259357600080fd5b506125a08c828d01611d8c565b9150509295985092959850929598565b60008060008060008060008060008060006101608c8e0312156125d257600080fd5b8b359a5060208c0135995067ffffffffffffffff8060408e013511156125f757600080fd5b6126078e60408f01358f01611d8c565b99508060608e0135111561261a57600080fd5b61262a8e60608f01358f01611d8c565b98508060808e0135111561263d57600080fd5b61264d8e60808f01358f01611d8c565b97508060a08e0135111561266057600080fd5b6126708e60a08f01358f01611d8c565b96508060c08e0135111561268357600080fd5b6126938e60c08f01358f01611d8c565b955060e08d01359450806101008e013511156126ae57600080fd5b6126bf8e6101008f01358f01611d8c565b9350806101208e013511156126d357600080fd5b6126e48e6101208f01358f01611d8c565b9250806101408e013511156126f857600080fd5b5061270a8d6101408e01358e01611d8c565b90509295989b509295989b9093969950565b60028104600182168061273057607f821691505b602082108103612769577f4e487b7100000000000000000000000000000000000000000000000000000000600052602260045260246000fd5b5091905056fea2646970667358221220fe33c3288daa76f207a7a072d43a4fdefb1e213967aa0bf91ace53560d482d8864736f6c634300080e0033",
  "immutableReferences": {},
  "source": "//SPDX-License-Identifier:MIT\npragma solidity ^0.8.14;\n\n// smart contract starts here\ncontract Blockchain {\n    struct Developer {\n        // structure for Developer\n        uint256 developer_id;\n        string developer_name;\n        string developer_doj;\n    }\n\n    struct leadDeveloper {\n        // structure for leadDeveloper\n        uint256 leaddeveloper_id;\n        string leaddeveloper_name;\n        string leaddeveloper_doj;\n    }\n\n    struct blockchainAdmin {\n        // structure for blockchainAdmin\n        uint256 blockchainadmin_id;\n        string blockchainadmin_name;\n        string blockchainadmin_doj;\n    }\n\n    struct superAdmin {\n        // structure for superAdmin\n        uint256 superadmin_id;\n        string superadmin_name;\n        string superadmin_doj;\n    }\n\n    struct code {\n        // structure for code upload\n        string scode;\n        uint256 developer_id;\n        string utimestamp;\n    }\n    struct testcode {\n        // structure for test code (UI to ML)\n        string tcode;\n    }\n    struct mlResult {\n        string result;\n        string ptimestamp;\n        string vulscore;\n    }\n    struct toIPFS {\n        uint256 developer_id;\n        string code;\n        string utimestamp;\n        string result;\n        string ptimestamp;\n        string vulscore;\n        uint256 leaddeveloper_id;\n        string rtimestamp;\n    }\n    struct fromIPFS {\n        uint256 developer_id;\n        string code;\n        string utimestamp;\n        string result;\n        string ptimestamp;\n        string vulscore;\n        uint256 leaddeveloper_id;\n        string rtimestamp;\n        string filehash;\n        string gtimestamp;\n    }\n    struct toBlockchain {\n        uint256 leaddeveloper_id;\n        uint256 developer_id;\n        string code;\n        string utimestamp;\n        string result;\n        string ptimestamp;\n        string vulscore;\n        string rtimestamp;\n        string filehash;\n        string gtimestamp;\n        string pushtimestamp;\n    }\n\n    //different mappings are done here\n    mapping(uint256 => Developer) developers;\n    mapping(uint256 => leadDeveloper) leaddevelopers;\n    mapping(uint256 => blockchainAdmin) blockchainadmins;\n    mapping(uint256 => superAdmin) superadmins;\n    mapping(uint256 => code) codes;\n    mapping(uint256 => testcode) testcodes;\n    mapping(uint256 => mlResult) mlResults;\n    mapping(uint256 => toIPFS) toIPFSs;\n    mapping(uint256 => fromIPFS) fromIPFSs;\n    mapping(uint256 => toBlockchain) toBlockchains;\n\n    // add Developers\n    function addDeveloper(\n        uint256 _developer_address,\n        uint256 d_id,\n        string memory d_name,\n        string memory d_doj\n    ) public {\n        developers[_developer_address] = Developer(d_id, d_name, d_doj);\n    }\n\n    // get Developers\n    function getDeveloper(uint256 _developer_address)\n        public\n        view\n        returns (\n            uint256,\n            string memory,\n            string memory\n        )\n    {\n        Developer memory d = developers[_developer_address];\n        return (d.developer_id, d.developer_name, d.developer_doj);\n    }\n\n    // add Lead Developers\n    function addLeadDeveloper(\n        uint256 _leaddeveloper_address,\n        uint256 ld_id,\n        string memory ld_name,\n        string memory ld_doj\n    ) public {\n        leaddevelopers[_leaddeveloper_address] = leadDeveloper(\n            ld_id,\n            ld_name,\n            ld_doj\n        );\n    }\n\n    // get Lead Developers\n    function getLeadDeveloper(uint256 _leaddeveloper_address)\n        public\n        view\n        returns (\n            uint256,\n            string memory,\n            string memory\n        )\n    {\n        leadDeveloper memory ld = leaddevelopers[_leaddeveloper_address];\n        return (\n            ld.leaddeveloper_id,\n            ld.leaddeveloper_name,\n            ld.leaddeveloper_doj\n        );\n    }\n\n    // add Blockchain Admin\n    function addBlockchainAdmin(\n        uint256 _blockchain_address,\n        uint256 bca_id,\n        string memory bca_name,\n        string memory bca_doj\n    ) public {\n        blockchainadmins[_blockchain_address] = blockchainAdmin(\n            bca_id,\n            bca_name,\n            bca_doj\n        );\n    }\n\n    // get Blockchain Admin\n    function getBlockchainAdmin(uint256 _blockchain_address)\n        public\n        view\n        returns (\n            uint256,\n            string memory,\n            string memory\n        )\n    {\n        blockchainAdmin memory bca = blockchainadmins[_blockchain_address];\n        return (\n            bca.blockchainadmin_id,\n            bca.blockchainadmin_name,\n            bca.blockchainadmin_doj\n        );\n    }\n\n    // add Super Admin\n    function addSuperAdmin(\n        uint256 _superadmin_address,\n        uint256 sa_id,\n        string memory sa_name,\n        string memory sa_doj\n    ) public {\n        superadmins[_superadmin_address] = superAdmin(sa_id, sa_name, sa_doj);\n    }\n\n    // get Super Admin\n    function getSuperAdmin(uint256 _superadmin_address)\n        public\n        view\n        returns (\n            uint256,\n            string memory,\n            string memory\n        )\n    {\n        superAdmin memory sa = superadmins[_superadmin_address];\n        return (sa.superadmin_id, sa.superadmin_name, sa.superadmin_doj);\n    }\n\n    //upload code\n    function uploadCode(\n        uint256 _developer_address,\n        string memory scode,\n        uint256 developer_id,\n        string memory utimestamp\n    ) public {\n        codes[_developer_address] = code(scode, developer_id, utimestamp);\n    }\n\n    //check uploaded code\n    function ckeckUploadedCode(uint256 _leaddeveloper_address)\n        public\n        view\n        returns (\n            string memory,\n            uint256,\n            string memory\n        )\n    {\n        code memory c = codes[_leaddeveloper_address];\n        return (c.scode, c.developer_id, c.utimestamp);\n    }\n\n    // send code for testing\n    function sendCodeForTesting(\n        uint256 _leaddeveloper_address,\n        string memory tcode\n    ) public {\n        testcodes[_leaddeveloper_address] = testcode(tcode);\n    }\n\n    // check the sent code for testing\n    function checkSentCode(uint256 _leaddeveloper_address)\n        public\n        view\n        returns (string memory)\n    {\n        testcode memory tc = testcodes[_leaddeveloper_address];\n        return (tc.tcode);\n    }\n\n    // test result from ML to UI\n    function workMlResult(\n        uint256 _blockchainadmin_address,\n        string memory result,\n        string memory ptimestamp,\n        string memory vulscore\n    ) public {\n        mlResults[_blockchainadmin_address] = mlResult(\n            result,\n            ptimestamp,\n            vulscore\n        );\n    }\n\n    // get result from ML to UI\n    function getResults(uint256 _blockchainadmin_address)\n        public\n        view\n        returns (\n            string memory,\n            string memory,\n            string memory\n        )\n    {\n        mlResult memory mlr = mlResults[_blockchainadmin_address];\n        return (mlr.result, mlr.ptimestamp, mlr.vulscore);\n    }\n\n    // send result to IPFS for storage\n    function sendResultIPFS(\n        uint256 _leaddeveloper_address,\n        uint256 developer_id,\n        string memory code,\n        string memory utimestamp,\n        string memory result,\n        string memory ptimestamp,\n        string memory vulscore,\n        uint256 leaddeveloper_id,\n        string memory rtimestamp\n    ) public {\n        toIPFSs[_leaddeveloper_address] = toIPFS(\n            developer_id,\n            code,\n            utimestamp,\n            result,\n            ptimestamp,\n            vulscore,\n            leaddeveloper_id,\n            rtimestamp\n        );\n    }\n\n    // check the result  to be send from IPFS for storage\n    function CheckResultIPFS(uint256 _leaddeveloper_address)\n        public\n        view\n        returns (\n            uint256,\n            string memory,\n            string memory,\n            string memory,\n            string memory,\n            string memory,\n            uint256,\n            string memory\n        )\n    {\n        toIPFS memory ti = toIPFSs[_leaddeveloper_address];\n        return (\n            ti.developer_id,\n            ti.code,\n            ti.utimestamp,\n            ti.result,\n            ti.ptimestamp,\n            ti.vulscore,\n            ti.leaddeveloper_id,\n            ti.rtimestamp\n        );\n    }\n\n    // from IPFS (file hash generation)\n    function fileHashGen(\n        uint256 _leaddeveloper_address,\n        uint256 developer_id,\n        string memory code,\n        string memory utimestamp,\n        string memory result,\n        string memory ptimestamp,\n        string memory vulscore,\n        uint256 leaddeveloper_id,\n        string memory rtimestamp,\n        string memory filehash,\n        string memory gtimestamp\n    ) public {\n        fromIPFSs[_leaddeveloper_address] = fromIPFS(\n            developer_id,\n            code,\n            utimestamp,\n            result,\n            ptimestamp,\n            vulscore,\n            leaddeveloper_id,\n            rtimestamp,\n            filehash,\n            gtimestamp\n        );\n    }\n\n    // check the file hash to be send from IPFS\n    function checkFileHashGen(uint256 _leaddeveloper_address)\n        public\n        view\n        returns (\n            uint256,\n            string memory,\n            string memory,\n            string memory,\n            string memory,\n            string memory,\n            uint256,\n            string memory,\n            string memory,\n            string memory\n        )\n    {\n        fromIPFS memory fi = fromIPFSs[_leaddeveloper_address];\n        return (\n            fi.developer_id,\n            fi.code,\n            fi.utimestamp,\n            fi.result,\n            fi.ptimestamp,\n            fi.vulscore,\n            fi.leaddeveloper_id,\n            fi.rtimestamp,\n            fi.filehash,\n            fi.gtimestamp\n        );\n    }\n\n    // to Blockchain (all info to store)\n    function FinalBlockchain(\n        uint256 _superadmin_address,\n        uint256 leaddeveloper_id,\n        uint256 developer_id,\n        string memory code,\n        string memory utimestamp,\n        string memory result,\n        string memory ptimestamp,\n        string memory vulscore,\n        string memory rtimestamp,\n        string memory filehash,\n        string memory gtimestamp,\n        string memory pushtimestamp\n    ) public {\n        toBlockchains[_superadmin_address] = toBlockchain(\n            leaddeveloper_id,\n            developer_id,\n            code,\n            utimestamp,\n            result,\n            ptimestamp,\n            vulscore,\n            rtimestamp,\n            filehash,\n            gtimestamp,\n            pushtimestamp\n        );\n    }\n\n    // Check details of Blockchain (all info to be store)\n    function FinalBlockchain(uint256 _superadmin_address)\n        public\n        view\n        returns (\n            uint256 leaddeveloper_id,\n            uint256 developer_id,\n            string memory code,\n            string memory utimestamp,\n            string memory result,\n            string memory ptimestamp,\n            string memory vulscore,\n            string memory rtimestamp,\n            string memory filehash,\n            string memory gtimestamp,\n            string memory pushtimestamp\n        )\n    {\n        toBlockchain memory tb = toBlockchains[_superadmin_address];\n        return (\n            tb.leaddeveloper_id,\n            tb.developer_id,\n            tb.code,\n            tb.utimestamp,\n            tb.result,\n            tb.ptimestamp,\n            tb.vulscore,\n            tb.rtimestamp,\n            tb.filehash,\n            tb.gtimestamp,\n            tb.pushtimestamp\n        );\n    }\n}\n",
  "sourcePath": "/Users/jayamhy/Documents/ML_Project/scvdp/contracts/Blockchain.sol",
  "compiler": {
    "name": "solc",
    "version": "0.8.14+commit.80d49f37.Emscripten.clang"
  },
  "schemaVersion": "3.4.7",
  "updatedAt": "2022-06-02T14:34:59.175Z",
  "networkType": "ethereum",
  "devdoc": {
    "kind": "dev",
    "methods": {},
    "version": 1
  },
  "userdoc": {
    "kind": "user",
    "methods": {},
    "version": 1
  }
}