{
  "contractName": "Blockchain",
  "abi": [
    {
      "inputs": [
        {
          "internalType": "uint256",
          "name": "_developer_address",
          "type": "uint256"
        },
        {
          "internalType": "uint256",
          "name": "d_id",
          "type": "uint256"
        },
        {
          "internalType": "string",
          "name": "d_name",
          "type": "string"
        },
        {
          "internalType": "string",
          "name": "d_doj",
          "type": "string"
        }
      ],
      "name": "addDeveloper",
      "outputs": [],
      "stateMutability": "nonpayable",
      "type": "function"
    },
    {
      "inputs": [
        {
          "internalType": "uint256",
          "name": "_developer_address",
          "type": "uint256"
        }
      ],
      "name": "getDeveloper",
      "outputs": [
        {
          "internalType": "uint256",
          "name": "",
          "type": "uint256"
        },
        {
          "internalType": "string",
          "name": "",
          "type": "string"
        },
        {
          "internalType": "string",
          "name": "",
          "type": "string"
        }
      ],
      "stateMutability": "view",
      "type": "function"
    },
    {
      "inputs": [
        {
          "internalType": "uint256",
          "name": "_leaddeveloper_address",
          "type": "uint256"
        },
        {
          "internalType": "uint256",
          "name": "ld_id",
          "type": "uint256"
        },
        {
          "internalType": "string",
          "name": "ld_name",
          "type": "string"
        },
        {
          "internalType": "string",
          "name": "ld_doj",
          "type": "string"
        }
      ],
      "name": "addLeadDeveloper",
      "outputs": [],
      "stateMutability": "nonpayable",
      "type": "function"
    },
    {
      "inputs": [
        {
          "internalType": "uint256",
          "name": "_leaddeveloper_address",
          "type": "uint256"
        }
      ],
      "name": "getLeadDeveloper",
      "outputs": [
        {
          "internalType": "uint256",
          "name": "",
          "type": "uint256"
        },
        {
          "internalType": "string",
          "name": "",
          "type": "string"
        },
        {
          "internalType": "string",
          "name": "",
          "type": "string"
        }
      ],
      "stateMutability": "view",
      "type": "function"
    },
    {
      "inputs": [
        {
          "internalType": "uint256",
          "name": "_blockchain_address",
          "type": "uint256"
        },
        {
          "internalType": "uint256",
          "name": "bca_id",
          "type": "uint256"
        },
        {
          "internalType": "string",
          "name": "bca_name",
          "type": "string"
        },
        {
          "internalType": "string",
          "name": "bca_doj",
          "type": "string"
        }
      ],
      "name": "addBlockchainAdmin",
      "outputs": [],
      "stateMutability": "nonpayable",
      "type": "function"
    },
    {
      "inputs": [
        {
          "internalType": "uint256",
          "name": "_blockchain_address",
          "type": "uint256"
        }
      ],
      "name": "getBlockchainAdmin",
      "outputs": [
        {
          "internalType": "uint256",
          "name": "",
          "type": "uint256"
        },
        {
          "internalType": "string",
          "name": "",
          "type": "string"
        },
        {
          "internalType": "string",
          "name": "",
          "type": "string"
        }
      ],
      "stateMutability": "view",
      "type": "function"
    },
    {
      "inputs": [
        {
          "internalType": "uint256",
          "name": "_superadmin_address",
          "type": "uint256"
        },
        {
          "internalType": "uint256",
          "name": "sa_id",
          "type": "uint256"
        },
        {
          "internalType": "string",
          "name": "sa_name",
          "type": "string"
        },
        {
          "internalType": "string",
          "name": "sa_doj",
          "type": "string"
        }
      ],
      "name": "addSuperAdmin",
      "outputs": [],
      "stateMutability": "nonpayable",
      "type": "function"
    },
    {
      "inputs": [
        {
          "internalType": "uint256",
          "name": "_superadmin_address",
          "type": "uint256"
        }
      ],
      "name": "getSuperAdmin",
      "outputs": [
        {
          "internalType": "uint256",
          "name": "",
          "type": "uint256"
        },
        {
          "internalType": "string",
          "name": "",
          "type": "string"
        },
        {
          "internalType": "string",
          "name": "",
          "type": "string"
        }
      ],
      "stateMutability": "view",
      "type": "function"
    },
    {
      "inputs": [
        {
          "internalType": "uint256",
          "name": "_developer_address",
          "type": "uint256"
        },
        {
          "internalType": "string",
          "name": "scode",
          "type": "string"
        },
        {
          "internalType": "uint256",
          "name": "developer_id",
          "type": "uint256"
        },
        {
          "internalType": "string",
          "name": "utimestamp",
          "type": "string"
        }
      ],
      "name": "uploadCode",
      "outputs": [],
      "stateMutability": "nonpayable",
      "type": "function"
    },
    {
      "inputs": [
        {
          "internalType": "uint256",
          "name": "_leaddeveloper_address",
          "type": "uint256"
        }
      ],
      "name": "ckeckUploadedCode",
      "outputs": [
        {
          "internalType": "string",
          "name": "",
          "type": "string"
        },
        {
          "internalType": "uint256",
          "name": "",
          "type": "uint256"
        },
        {
          "internalType": "string",
          "name": "",
          "type": "string"
        }
      ],
      "stateMutability": "view",
      "type": "function"
    },
    {
      "inputs": [
        {
          "internalType": "uint256",
          "name": "_leaddeveloper_address",
          "type": "uint256"
        },
        {
          "internalType": "string",
          "name": "tcode",
          "type": "string"
        }
      ],
      "name": "sendCodeForTesting",
      "outputs": [],
      "stateMutability": "nonpayable",
      "type": "function"
    },
    {
      "inputs": [
        {
          "internalType": "uint256",
          "name": "_leaddeveloper_address",
          "type": "uint256"
        }
      ],
      "name": "checkSentCode",
      "outputs": [
        {
          "internalType": "string",
          "name": "",
          "type": "string"
        }
      ],
      "stateMutability": "view",
      "type": "function"
    },
    {
      "inputs": [
        {
          "internalType": "uint256",
          "name": "_blockchainadmin_address",
          "type": "uint256"
        },
        {
          "internalType": "string",
          "name": "result",
          "type": "string"
        },
        {
          "internalType": "string",
          "name": "vulscore",
          "type": "string"
        },
        {
          "internalType": "string",
          "name": "nonvulscore",
          "type": "string"
        },
        {
          "internalType": "string",
          "name": "filename",
          "type": "string"
        },
        {
          "internalType": "string",
          "name": "ptimestamp",
          "type": "string"
        },
        {
          "internalType": "string",
          "name": "utimestamp",
          "type": "string"
        },
        {
          "internalType": "string",
          "name": "filepath",
          "type": "string"
        }
      ],
      "name": "workMlResult",
      "outputs": [],
      "stateMutability": "nonpayable",
      "type": "function"
    },
    {
      "inputs": [
        {
          "internalType": "uint256",
          "name": "_blockchainadmin_address",
          "type": "uint256"
        }
      ],
      "name": "getResults",
      "outputs": [
        {
          "internalType": "string",
          "name": "",
          "type": "string"
        },
        {
          "internalType": "string",
          "name": "",
          "type": "string"
        },
        {
          "internalType": "string",
          "name": "",
          "type": "string"
        }
      ],
      "stateMutability": "view",
      "type": "function"
    },
    {
      "inputs": [
        {
          "internalType": "uint256",
          "name": "_leaddeveloper_address",
          "type": "uint256"
        },
        {
          "internalType": "uint256",
          "name": "developer_id",
          "type": "uint256"
        },
        {
          "internalType": "string",
          "name": "sourcecode",
          "type": "string"
        },
        {
          "internalType": "string",
          "name": "utimestamp",
          "type": "string"
        },
        {
          "internalType": "string",
          "name": "result",
          "type": "string"
        },
        {
          "internalType": "string",
          "name": "ptimestamp",
          "type": "string"
        },
        {
          "internalType": "string",
          "name": "vulscore",
          "type": "string"
        },
        {
          "internalType": "uint256",
          "name": "leaddeveloper_id",
          "type": "uint256"
        },
        {
          "internalType": "string",
          "name": "rtimestamp",
          "type": "string"
        }
      ],
      "name": "sendResultIPFS",
      "outputs": [],
      "stateMutability": "nonpayable",
      "type": "function"
    },
    {
      "inputs": [
        {
          "internalType": "uint256",
          "name": "_leaddeveloper_address",
          "type": "uint256"
        }
      ],
      "name": "CheckResultIPFS",
      "outputs": [
        {
          "internalType": "uint256",
          "name": "",
          "type": "uint256"
        },
        {
          "internalType": "string",
          "name": "",
          "type": "string"
        },
        {
          "internalType": "string",
          "name": "",
          "type": "string"
        },
        {
          "internalType": "string",
          "name": "",
          "type": "string"
        },
        {
          "internalType": "string",
          "name": "",
          "type": "string"
        },
        {
          "internalType": "string",
          "name": "",
          "type": "string"
        },
        {
          "internalType": "uint256",
          "name": "",
          "type": "uint256"
        },
        {
          "internalType": "string",
          "name": "",
          "type": "string"
        }
      ],
      "stateMutability": "view",
      "type": "function"
    },
    {
      "inputs": [
        {
          "internalType": "uint256",
          "name": "_leaddeveloper_address",
          "type": "uint256"
        },
        {
          "internalType": "uint256",
          "name": "developer_id",
          "type": "uint256"
        },
        {
          "internalType": "string",
          "name": "sourcecode",
          "type": "string"
        },
        {
          "internalType": "string",
          "name": "utimestamp",
          "type": "string"
        },
        {
          "internalType": "string",
          "name": "result",
          "type": "string"
        },
        {
          "internalType": "string",
          "name": "ptimestamp",
          "type": "string"
        },
        {
          "internalType": "string",
          "name": "vulscore",
          "type": "string"
        },
        {
          "internalType": "uint256",
          "name": "leaddeveloper_id",
          "type": "uint256"
        },
        {
          "internalType": "string",
          "name": "rtimestamp",
          "type": "string"
        },
        {
          "internalType": "string",
          "name": "filehash",
          "type": "string"
        },
        {
          "internalType": "string",
          "name": "gtimestamp",
          "type": "string"
        }
      ],
      "name": "fileHashGen",
      "outputs": [],
      "stateMutability": "nonpayable",
      "type": "function"
    },
    {
      "inputs": [
        {
          "internalType": "uint256",
          "name": "_leaddeveloper_address",
          "type": "uint256"
        }
      ],
      "name": "checkFileHashGen",
      "outputs": [
        {
          "internalType": "uint256",
          "name": "",
          "type": "uint256"
        },
        {
          "internalType": "string",
          "name": "",
          "type": "string"
        },
        {
          "internalType": "string",
          "name": "",
          "type": "string"
        },
        {
          "internalType": "string",
          "name": "",
          "type": "string"
        },
        {
          "internalType": "string",
          "name": "",
          "type": "string"
        },
        {
          "internalType": "string",
          "name": "",
          "type": "string"
        },
        {
          "internalType": "uint256",
          "name": "",
          "type": "uint256"
        },
        {
          "internalType": "string",
          "name": "",
          "type": "string"
        },
        {
          "internalType": "string",
          "name": "",
          "type": "string"
        },
        {
          "internalType": "string",
          "name": "",
          "type": "string"
        }
      ],
      "stateMutability": "view",
      "type": "function"
    },
    {
      "inputs": [
        {
          "internalType": "uint256",
          "name": "_superadmin_address",
          "type": "uint256"
        },
        {
          "internalType": "uint256",
          "name": "leaddeveloper_id",
          "type": "uint256"
        },
        {
          "internalType": "uint256",
          "name": "developer_id",
          "type": "uint256"
        },
        {
          "internalType": "string",
          "name": "sourcecode",
          "type": "string"
        },
        {
          "internalType": "string",
          "name": "utimestamp",
          "type": "string"
        },
        {
          "internalType": "string",
          "name": "result",
          "type": "string"
        },
        {
          "internalType": "string",
          "name": "ptimestamp",
          "type": "string"
        },
        {
          "internalType": "string",
          "name": "vulscore",
          "type": "string"
        },
        {
          "internalType": "string",
          "name": "rtimestamp",
          "type": "string"
        },
        {
          "internalType": "string",
          "name": "filehash",
          "type": "string"
        },
        {
          "internalType": "string",
          "name": "gtimestamp",
          "type": "string"
        },
        {
          "internalType": "string",
          "name": "pushtimestamp",
          "type": "string"
        }
      ],
      "name": "FinalBlockchain",
      "outputs": [],
      "stateMutability": "nonpayable",
      "type": "function"
    },
    {
      "inputs": [
        {
          "internalType": "uint256",
          "name": "_superadmin_address",
          "type": "uint256"
        }
      ],
      "name": "FinalBlockchain",
      "outputs": [
        {
          "internalType": "uint256",
          "name": "leaddeveloper_id",
          "type": "uint256"
        },
        {
          "internalType": "uint256",
          "name": "developer_id",
          "type": "uint256"
        },
        {
          "internalType": "string",
          "name": "sourcecode",
          "type": "string"
        },
        {
          "internalType": "string",
          "name": "utimestamp",
          "type": "string"
        },
        {
          "internalType": "string",
          "name": "result",
          "type": "string"
        },
        {
          "internalType": "string",
          "name": "ptimestamp",
          "type": "string"
        },
        {
          "internalType": "string",
          "name": "vulscore",
          "type": "string"
        },
        {
          "internalType": "string",
          "name": "rtimestamp",
          "type": "string"
        },
        {
          "internalType": "string",
          "name": "filehash",
          "type": "string"
        },
        {
          "internalType": "string",
          "name": "gtimestamp",
          "type": "string"
        },
        {
          "internalType": "string",
          "name": "pushtimestamp",
          "type": "string"
        }
      ],
      "stateMutability": "view",
      "type": "function"
    }
  ],
  "bytecode": "0x608060405234801561001057600080fd5b50612ca0806100206000396000f3fe608060405234801561001057600080fd5b5060043610610149576000357c01000000000000000000000000000000000000000000000000000000009004806381a60c0d116100ca578063b4fc83d31161008e578063b4fc83d3146102f1578063cdd8485514610304578063d0ab478b14610317578063e5d6a4731461032a578063f87aed8b1461033d57600080fd5b806381a60c0d146102565780638294aa16146102785780638386499b146102a15780639ac59151146102b4578063b04e7bbb146102c757600080fd5b806348af8fc71161011157806348af8fc7146101d65780635cb3e8ba146101e957806366c583aa1461021057806379ae0188146102235780637a276bb61461024357600080fd5b806303839b141461014e57806304fb75cd146101635780632e34d76e1461018e5780633493205c146101b0578063409027a8146101c3575b600080fd5b61016161015c366004612246565b610350565b005b61017661017136600461228d565b610387565b604051610185939291906122f3565b60405180910390f35b6101a161019c36600461228d565b6104f7565b60405161018593929190612328565b6101a16101be36600461228d565b6105c8565b6101616101d1366004612353565b610607565b6101616101e4366004612353565b61066e565b6101fc6101f736600461228d565b6106b1565b6040516101859897969594939291906123ca565b61016161021e36600461245d565b610aa6565b61023661023136600461228d565b610c29565b604051610185919061262d565b6101a161025136600461228d565b610ce7565b61026961026436600461228d565b610d25565b60405161018593929190612647565b61028b61028636600461228d565b611164565b6040516101859a99989796959493929190612680565b6101616102af36600461273f565b611692565b6101616102c2366004612353565b6116f2565b6102da6102d536600461228d565b611738565b6040516101859b9a9998979695949392919061279d565b6101616102ff366004612353565b611d02565b6101a161031236600461228d565b611d45565b610161610325366004612872565b611d84565b610161610338366004612997565b611e8f565b61016161034b366004612aab565b611f9a565b604080516020808201835283825260008581526005825292909220815180519293919261038092849201906120f1565b5050505050565b6060600060606000600460008681526020019081526020016000206040518060600160405290816000820180546103bd90612c17565b80601f01602080910402602001604051908101604052809291908181526020018280546103e990612c17565b80156104365780601f1061040b57610100808354040283529160200191610436565b820191906000526020600020905b81548152906001019060200180831161041957829003601f168201915b505050505081526020016001820154815260200160028201805461045990612c17565b80601f016020809104026020016040519081016040528092919081815260200182805461048590612c17565b80156104d25780601f106104a7576101008083540402835291602001916104d2565b820191906000526020600020905b8154815290600101906020018083116104b557829003601f168201915b5050509190925250508151602083015160409093015190989297509550909350505050565b60006060806000600160008681526020019081526020016000206040518060600160405290816000820154815260200160018201805461053690612c17565b80601f016020809104026020016040519081016040528092919081815260200182805461056290612c17565b80156105af5780601f10610584576101008083540402835291602001916105af565b820191906000526020600020905b81548152906001019060200180831161059257829003601f168201915b5050505050815260200160028201805461045990612c17565b60006060806000600360008681526020019081526020016000206040518060600160405290816000820154815260200160018201805461053690612c17565b604080516060810182528481526020808201858152828401859052600088815280835293909320825181559251805192939261064992600185019201906120f1565b50604082015180516106659160028401916020909101906120f1565b50505050505050565b60408051606081018252848152602080820185815282840185905260008881526003835293909320825181559251805192939261064992600185019201906120f1565b60006060806060806060600060606000600760008b815260200190815260200160002060405180610100016040529081600082015481526020016001820180546106fa90612c17565b80601f016020809104026020016040519081016040528092919081815260200182805461072690612c17565b80156107735780601f1061074857610100808354040283529160200191610773565b820191906000526020600020905b81548152906001019060200180831161075657829003601f168201915b5050505050815260200160028201805461078c90612c17565b80601f01602080910402602001604051908101604052809291908181526020018280546107b890612c17565b80156108055780601f106107da57610100808354040283529160200191610805565b820191906000526020600020905b8154815290600101906020018083116107e857829003601f168201915b5050505050815260200160038201805461081e90612c17565b80601f016020809104026020016040519081016040528092919081815260200182805461084a90612c17565b80156108975780601f1061086c57610100808354040283529160200191610897565b820191906000526020600020905b81548152906001019060200180831161087a57829003601f168201915b505050505081526020016004820180546108b090612c17565b80601f01602080910402602001604051908101604052809291908181526020018280546108dc90612c17565b80156109295780601f106108fe57610100808354040283529160200191610929565b820191906000526020600020905b81548152906001019060200180831161090c57829003601f168201915b5050505050815260200160058201805461094290612c17565b80601f016020809104026020016040519081016040528092919081815260200182805461096e90612c17565b80156109bb5780601f10610990576101008083540402835291602001916109bb565b820191906000526020600020905b81548152906001019060200180831161099e57829003601f168201915b50505050508152602001600682015481526020016007820180546109de90612c17565b80601f0160208091040260200160405190810160405280929190818152602001828054610a0a90612c17565b8015610a575780601f10610a2c57610100808354040283529160200191610a57565b820191906000526020600020905b815481529060010190602001808311610a3a57829003601f168201915b5050505050815250509050806000015181602001518260400151836060015184608001518560a001518660c001518760e001519850985098509850985098509850985050919395975091939597565b6040518061016001604052808c81526020018b81526020018a815260200189815260200188815260200187815260200186815260200185815260200184815260200183815260200182815250600960008e815260200190815260200160002060008201518160000155602082015181600101556040820151816002019080519060200190610b359291906120f1565b5060608201518051610b519160038401916020909101906120f1565b5060808201518051610b6d9160048401916020909101906120f1565b5060a08201518051610b899160058401916020909101906120f1565b5060c08201518051610ba59160068401916020909101906120f1565b5060e08201518051610bc19160078401916020909101906120f1565b506101008201518051610bde9160088401916020909101906120f1565b506101208201518051610bfb9160098401916020909101906120f1565b506101408201518051610c1891600a8401916020909101906120f1565b505050505050505050505050505050565b6060600060056000848152602001908152602001600020604051806020016040529081600082018054610c5b90612c17565b80601f0160208091040260200160405190810160405280929190818152602001828054610c8790612c17565b8015610cd45780601f10610ca957610100808354040283529160200191610cd4565b820191906000526020600020905b815481529060010190602001808311610cb757829003601f168201915b5050509190925250509051949350505050565b600060608060008060008681526020019081526020016000206040518060600160405290816000820154815260200160018201805461053690612c17565b60608060606000600660008681526020019081526020016000206040518060e0016040529081600082018054610d5a90612c17565b80601f0160208091040260200160405190810160405280929190818152602001828054610d8690612c17565b8015610dd35780601f10610da857610100808354040283529160200191610dd3565b820191906000526020600020905b815481529060010190602001808311610db657829003601f168201915b50505050508152602001600182018054610dec90612c17565b80601f0160208091040260200160405190810160405280929190818152602001828054610e1890612c17565b8015610e655780601f10610e3a57610100808354040283529160200191610e65565b820191906000526020600020905b815481529060010190602001808311610e4857829003601f168201915b50505050508152602001600282018054610e7e90612c17565b80601f0160208091040260200160405190810160405280929190818152602001828054610eaa90612c17565b8015610ef75780601f10610ecc57610100808354040283529160200191610ef7565b820191906000526020600020905b815481529060010190602001808311610eda57829003601f168201915b50505050508152602001600382018054610f1090612c17565b80601f0160208091040260200160405190810160405280929190818152602001828054610f3c90612c17565b8015610f895780601f10610f5e57610100808354040283529160200191610f89565b820191906000526020600020905b815481529060010190602001808311610f6c57829003601f168201915b50505050508152602001600482018054610fa290612c17565b80601f0160208091040260200160405190810160405280929190818152602001828054610fce90612c17565b801561101b5780601f10610ff05761010080835404028352916020019161101b565b820191906000526020600020905b815481529060010190602001808311610ffe57829003601f168201915b5050505050815260200160058201805461103490612c17565b80601f016020809104026020016040519081016040528092919081815260200182805461106090612c17565b80156110ad5780601f10611082576101008083540402835291602001916110ad565b820191906000526020600020905b81548152906001019060200180831161109057829003601f168201915b505050505081526020016006820180546110c690612c17565b80601f01602080910402602001604051908101604052809291908181526020018280546110f290612c17565b801561113f5780601f106111145761010080835404028352916020019161113f565b820191906000526020600020905b81548152906001019060200180831161112257829003601f168201915b5050509190925250508151608083015160209093015190989297509550909350505050565b60006060806060806060600060608060606000600860008d815260200190815260200160002060405180610140016040529081600082015481526020016001820180546111b090612c17565b80601f01602080910402602001604051908101604052809291908181526020018280546111dc90612c17565b80156112295780601f106111fe57610100808354040283529160200191611229565b820191906000526020600020905b81548152906001019060200180831161120c57829003601f168201915b5050505050815260200160028201805461124290612c17565b80601f016020809104026020016040519081016040528092919081815260200182805461126e90612c17565b80156112bb5780601f10611290576101008083540402835291602001916112bb565b820191906000526020600020905b81548152906001019060200180831161129e57829003601f168201915b505050505081526020016003820180546112d490612c17565b80601f016020809104026020016040519081016040528092919081815260200182805461130090612c17565b801561134d5780601f106113225761010080835404028352916020019161134d565b820191906000526020600020905b81548152906001019060200180831161133057829003601f168201915b5050505050815260200160048201805461136690612c17565b80601f016020809104026020016040519081016040528092919081815260200182805461139290612c17565b80156113df5780601f106113b4576101008083540402835291602001916113df565b820191906000526020600020905b8154815290600101906020018083116113c257829003601f168201915b505050505081526020016005820180546113f890612c17565b80601f016020809104026020016040519081016040528092919081815260200182805461142490612c17565b80156114715780601f1061144657610100808354040283529160200191611471565b820191906000526020600020905b81548152906001019060200180831161145457829003601f168201915b505050505081526020016006820154815260200160078201805461149490612c17565b80601f01602080910402602001604051908101604052809291908181526020018280546114c090612c17565b801561150d5780601f106114e25761010080835404028352916020019161150d565b820191906000526020600020905b8154815290600101906020018083116114f057829003601f168201915b5050505050815260200160088201805461152690612c17565b80601f016020809104026020016040519081016040528092919081815260200182805461155290612c17565b801561159f5780601f106115745761010080835404028352916020019161159f565b820191906000526020600020905b81548152906001019060200180831161158257829003601f168201915b505050505081526020016009820180546115b890612c17565b80601f01602080910402602001604051908101604052809291908181526020018280546115e490612c17565b80156116315780601f1061160657610100808354040283529160200191611631565b820191906000526020600020905b81548152906001019060200180831161161457829003601f168201915b5050505050815250509050806000015181602001518260400151836060015184608001518560a001518660c001518760e001518861010001518961012001519a509a509a509a509a509a509a509a509a509a50509193959799509193959799565b6040805160608101825284815260208082018590528183018490526000878152600482529290922081518051929391926116cf92849201906120f1565b5060208281015160018301556040830151805161066592600285019201906120f1565b60408051606081018252848152602080820185815282840185905260008881526001808452949020835181559051805193949193610649939285019291909101906120f1565b60008060608060608060608060608060606000600960008e815260200190815260200160002060405180610160016040529081600082015481526020016001820154815260200160028201805461178e90612c17565b80601f01602080910402602001604051908101604052809291908181526020018280546117ba90612c17565b80156118075780601f106117dc57610100808354040283529160200191611807565b820191906000526020600020905b8154815290600101906020018083116117ea57829003601f168201915b5050505050815260200160038201805461182090612c17565b80601f016020809104026020016040519081016040528092919081815260200182805461184c90612c17565b80156118995780601f1061186e57610100808354040283529160200191611899565b820191906000526020600020905b81548152906001019060200180831161187c57829003601f168201915b505050505081526020016004820180546118b290612c17565b80601f01602080910402602001604051908101604052809291908181526020018280546118de90612c17565b801561192b5780601f106119005761010080835404028352916020019161192b565b820191906000526020600020905b81548152906001019060200180831161190e57829003601f168201915b5050505050815260200160058201805461194490612c17565b80601f016020809104026020016040519081016040528092919081815260200182805461197090612c17565b80156119bd5780601f10611992576101008083540402835291602001916119bd565b820191906000526020600020905b8154815290600101906020018083116119a057829003601f168201915b505050505081526020016006820180546119d690612c17565b80601f0160208091040260200160405190810160405280929190818152602001828054611a0290612c17565b8015611a4f5780601f10611a2457610100808354040283529160200191611a4f565b820191906000526020600020905b815481529060010190602001808311611a3257829003601f168201915b50505050508152602001600782018054611a6890612c17565b80601f0160208091040260200160405190810160405280929190818152602001828054611a9490612c17565b8015611ae15780601f10611ab657610100808354040283529160200191611ae1565b820191906000526020600020905b815481529060010190602001808311611ac457829003601f168201915b50505050508152602001600882018054611afa90612c17565b80601f0160208091040260200160405190810160405280929190818152602001828054611b2690612c17565b8015611b735780601f10611b4857610100808354040283529160200191611b73565b820191906000526020600020905b815481529060010190602001808311611b5657829003601f168201915b50505050508152602001600982018054611b8c90612c17565b80601f0160208091040260200160405190810160405280929190818152602001828054611bb890612c17565b8015611c055780601f10611bda57610100808354040283529160200191611c05565b820191906000526020600020905b815481529060010190602001808311611be857829003601f168201915b50505050508152602001600a82018054611c1e90612c17565b80601f0160208091040260200160405190810160405280929190818152602001828054611c4a90612c17565b8015611c975780601f10611c6c57610100808354040283529160200191611c97565b820191906000526020600020905b815481529060010190602001808311611c7a57829003601f168201915b5050505050815250509050806000015181602001518260400151836060015184608001518560a001518660c001518760e001518861010001518961012001518a61014001519b509b509b509b509b509b509b509b509b509b509b505091939597999b90929496989a50565b60408051606081018252848152602080820185815282840185905260008881526002835293909320825181559251805192939261064992600185019201906120f1565b60006060806000600260008681526020019081526020016000206040518060600160405290816000820154815260200160018201805461053690612c17565b6040805160e0810182528881526020808201899052818301889052606082018790526080820186905260a0820185905260c0820184905260008b815260068252929092208151805192939192611ddd92849201906120f1565b506020828101518051611df692600185019201906120f1565b5060408201518051611e129160028401916020909101906120f1565b5060608201518051611e2e9160038401916020909101906120f1565b5060808201518051611e4a9160048401916020909101906120f1565b5060a08201518051611e669160058401916020909101906120f1565b5060c08201518051611e829160068401916020909101906120f1565b5050505050505050505050565b604080516101008101825289815260208082018a81528284018a9052606083018990526080830188905260a0830187905260c0830186905260e0830185905260008d815260078352939093208251815592518051929392611ef692600185019201906120f1565b5060408201518051611f129160028401916020909101906120f1565b5060608201518051611f2e9160038401916020909101906120f1565b5060808201518051611f4a9160048401916020909101906120f1565b5060a08201518051611f669160058401916020909101906120f1565b5060c0820151600682015560e08201518051611f8c9160078401916020909101906120f1565b505050505050505050505050565b60408051610140810182528b815260208082018c81528284018c9052606083018b9052608083018a905260a0830189905260c0830188905260e083018790526101008301869052610120830185905260008f81526008835293909320825181559251805192939261201192600185019201906120f1565b506040820151805161202d9160028401916020909101906120f1565b50606082015180516120499160038401916020909101906120f1565b50608082015180516120659160048401916020909101906120f1565b5060a082015180516120819160058401916020909101906120f1565b5060c0820151600682015560e082015180516120a79160078401916020909101906120f1565b5061010082015180516120c49160088401916020909101906120f1565b5061012082015180516120e19160098401916020909101906120f1565b5050505050505050505050505050565b8280546120fd90612c17565b90600052602060002090601f01602090048101928261211f5760008555612165565b82601f1061213857805160ff1916838001178555612165565b82800160010185558215612165579182015b8281111561216557825182559160200191906001019061214a565b50612171929150612175565b5090565b5b808211156121715760008155600101612176565b7f4e487b7100000000000000000000000000000000000000000000000000000000600052604160045260246000fd5b600082601f8301126121ca57600080fd5b813567ffffffffffffffff808211156121e5576121e561218a565b604051601f8301601f19908116603f0116810190828211818310171561220d5761220d61218a565b8160405283815286602085880101111561222657600080fd5b836020870160208301376000602085830101528094505050505092915050565b6000806040838503121561225957600080fd5b82359150602083013567ffffffffffffffff81111561227757600080fd5b612283858286016121b9565b9150509250929050565b60006020828403121561229f57600080fd5b5035919050565b6000815180845260005b818110156122cc576020818501810151868301820152016122b0565b818111156122de576000602083870101525b50601f01601f19169290920160200192915050565b60608152600061230660608301866122a6565b846020840152828103604084015261231e81856122a6565b9695505050505050565b83815260606020820152600061234160608301856122a6565b828103604084015261231e81856122a6565b6000806000806080858703121561236957600080fd5b8435935060208501359250604085013567ffffffffffffffff8082111561238f57600080fd5b61239b888389016121b9565b935060608701359150808211156123b157600080fd5b506123be878288016121b9565b91505092959194509250565b60006101008a83528060208401526123e48184018b6122a6565b905082810360408401526123f8818a6122a6565b9050828103606084015261240c81896122a6565b9050828103608084015261242081886122a6565b905082810360a084015261243481876122a6565b90508460c084015282810360e084015261244e81856122a6565b9b9a5050505050505050505050565b6000806000806000806000806000806000806101808d8f03121561248057600080fd5b8c359b5060208d01359a5060408d0135995067ffffffffffffffff60608e013511156124ab57600080fd5b6124bb8e60608f01358f016121b9565b985067ffffffffffffffff60808e013511156124d657600080fd5b6124e68e60808f01358f016121b9565b975067ffffffffffffffff60a08e0135111561250157600080fd5b6125118e60a08f01358f016121b9565b965067ffffffffffffffff60c08e0135111561252c57600080fd5b61253c8e60c08f01358f016121b9565b955067ffffffffffffffff60e08e0135111561255757600080fd5b6125678e60e08f01358f016121b9565b945067ffffffffffffffff6101008e0135111561258357600080fd5b6125948e6101008f01358f016121b9565b935067ffffffffffffffff6101208e013511156125b057600080fd5b6125c18e6101208f01358f016121b9565b925067ffffffffffffffff6101408e013511156125dd57600080fd5b6125ee8e6101408f01358f016121b9565b915067ffffffffffffffff6101608e0135111561260a57600080fd5b61261b8e6101608f01358f016121b9565b90509295989b509295989b509295989b565b60208152600061264060208301846122a6565b9392505050565b60608152600061265a60608301866122a6565b828103602084015261266c81866122a6565b9050828103604084015261231e81856122a6565b60006101408c835280602084015261269a8184018d6122a6565b905082810360408401526126ae818c6122a6565b905082810360608401526126c2818b6122a6565b905082810360808401526126d6818a6122a6565b905082810360a08401526126ea81896122a6565b90508660c084015282810360e084015261270481876122a6565b905082810361010084015261271981866122a6565b905082810361012084015261272e81856122a6565b9d9c50505050505050505050505050565b6000806000806080858703121561275557600080fd5b84359350602085013567ffffffffffffffff8082111561277457600080fd5b612780888389016121b9565b94506040870135935060608701359150808211156123b157600080fd5b60006101608d83528c60208401528060408401526127bd8184018d6122a6565b905082810360608401526127d1818c6122a6565b905082810360808401526127e5818b6122a6565b905082810360a08401526127f9818a6122a6565b905082810360c084015261280d81896122a6565b905082810360e084015261282181886122a6565b905082810361010084015261283681876122a6565b905082810361012084015261284b81866122a6565b905082810361014084015261286081856122a6565b9e9d5050505050505050505050505050565b600080600080600080600080610100898b03121561288f57600080fd5b88359750602089013567ffffffffffffffff808211156128ae57600080fd5b6128ba8c838d016121b9565b985060408b01359150808211156128d057600080fd5b6128dc8c838d016121b9565b975060608b01359150808211156128f257600080fd5b6128fe8c838d016121b9565b965060808b013591508082111561291457600080fd5b6129208c838d016121b9565b955060a08b013591508082111561293657600080fd5b6129428c838d016121b9565b945060c08b013591508082111561295857600080fd5b6129648c838d016121b9565b935060e08b013591508082111561297a57600080fd5b506129878b828c016121b9565b9150509295985092959890939650565b60008060008060008060008060006101208a8c0312156129b657600080fd5b8935985060208a0135975060408a013567ffffffffffffffff808211156129dc57600080fd5b6129e88d838e016121b9565b985060608c01359150808211156129fe57600080fd5b612a0a8d838e016121b9565b975060808c0135915080821115612a2057600080fd5b612a2c8d838e016121b9565b965060a08c0135915080821115612a4257600080fd5b612a4e8d838e016121b9565b955060c08c0135915080821115612a6457600080fd5b612a708d838e016121b9565b945060e08c013593506101008c0135915080821115612a8e57600080fd5b50612a9b8c828d016121b9565b9150509295985092959850929598565b60008060008060008060008060008060006101608c8e031215612acd57600080fd5b8b359a5060208c0135995067ffffffffffffffff8060408e01351115612af257600080fd5b612b028e60408f01358f016121b9565b99508060608e01351115612b1557600080fd5b612b258e60608f01358f016121b9565b98508060808e01351115612b3857600080fd5b612b488e60808f01358f016121b9565b97508060a08e01351115612b5b57600080fd5b612b6b8e60a08f01358f016121b9565b96508060c08e01351115612b7e57600080fd5b612b8e8e60c08f01358f016121b9565b955060e08d01359450806101008e01351115612ba957600080fd5b612bba8e6101008f01358f016121b9565b9350806101208e01351115612bce57600080fd5b612bdf8e6101208f01358f016121b9565b9250806101408e01351115612bf357600080fd5b50612c058d6101408e01358e016121b9565b90509295989b509295989b9093969950565b600281046001821680612c2b57607f821691505b602082108103612c64577f4e487b7100000000000000000000000000000000000000000000000000000000600052602260045260246000fd5b5091905056fea2646970667358221220f12b3cdfc37dd88f510b77b1c36640aa8919165b0a704b948eab1692cf4d32f064736f6c634300080e0033",
  "immutableReferences": {},
  "source": "//SPDX-License-Identifier:MIT\npragma solidity ^0.8.14;\n\n// smart contract starts here\ncontract Blockchain {\n    struct Developer {\n        // structure for Developer\n        uint256 developer_id;\n        string developer_name;\n        string developer_doj;\n    }\n\n    struct leadDeveloper {\n        // structure for leadDeveloper\n        uint256 leaddeveloper_id;\n        string leaddeveloper_name;\n        string leaddeveloper_doj;\n    }\n\n    struct blockchainAdmin {\n        // structure for blockchainAdmin\n        uint256 blockchainadmin_id;\n        string blockchainadmin_name;\n        string blockchainadmin_doj;\n    }\n\n    struct superAdmin {\n        // structure for superAdmin\n        uint256 superadmin_id;\n        string superadmin_name;\n        string superadmin_doj;\n    }\n\n    struct code {\n        // structure for code upload\n        string scode;\n        uint256 developer_id;\n        string utimestamp;\n    }\n    struct testcode {\n        // structure for test code (UI to ML)\n        string tcode;\n    }\n    struct mlResult {\n        string result;\n        string vulscore;\n        string nonvulscore;\n        string filename;\n        string ptimestamp;\n        string utimestamp;\n        string filepath;\n    }\n    struct toIPFS {\n        uint256 developer_id;\n        string code;\n        string utimestamp;\n        string result;\n        string ptimestamp;\n        string vulscore;\n        uint256 leaddeveloper_id;\n        string rtimestamp;\n    }\n    struct fromIPFS {\n        uint256 developer_id;\n        string code;\n        string utimestamp;\n        string result;\n        string ptimestamp;\n        string vulscore;\n        uint256 leaddeveloper_id;\n        string rtimestamp;\n        string filehash;\n        string gtimestamp;\n    }\n    struct toBlockchain {\n        uint256 leaddeveloper_id;\n        uint256 developer_id;\n        string sourcecode;\n        string utimestamp;\n        string result;\n        string ptimestamp;\n        string vulscore;\n        string rtimestamp;\n        string filehash;\n        string gtimestamp;\n        string pushtimestamp;\n    }\n\n    //different mappings are done here\n    mapping(uint256 => Developer) developers;\n    mapping(uint256 => leadDeveloper) leaddevelopers;\n    mapping(uint256 => blockchainAdmin) blockchainadmins;\n    mapping(uint256 => superAdmin) superadmins;\n    mapping(uint256 => code) codes;\n    mapping(uint256 => testcode) testcodes;\n    mapping(uint256 => mlResult) mlResults;\n    mapping(uint256 => toIPFS) toIPFSs;\n    mapping(uint256 => fromIPFS) fromIPFSs;\n    mapping(uint256 => toBlockchain) toBlockchains;\n\n    // add Developers\n    function addDeveloper(\n        uint256 _developer_address,\n        uint256 d_id,\n        string memory d_name,\n        string memory d_doj\n    ) public {\n        developers[_developer_address] = Developer(d_id, d_name, d_doj);\n    }\n\n    // get Developers\n    function getDeveloper(uint256 _developer_address)\n        public\n        view\n        returns (\n            uint256,\n            string memory,\n            string memory\n        )\n    {\n        Developer memory d = developers[_developer_address];\n        return (d.developer_id, d.developer_name, d.developer_doj);\n    }\n\n    // add Lead Developers\n    function addLeadDeveloper(\n        uint256 _leaddeveloper_address,\n        uint256 ld_id,\n        string memory ld_name,\n        string memory ld_doj\n    ) public {\n        leaddevelopers[_leaddeveloper_address] = leadDeveloper(\n            ld_id,\n            ld_name,\n            ld_doj\n        );\n    }\n\n    // get Lead Developers\n    function getLeadDeveloper(uint256 _leaddeveloper_address)\n        public\n        view\n        returns (\n            uint256,\n            string memory,\n            string memory\n        )\n    {\n        leadDeveloper memory ld = leaddevelopers[_leaddeveloper_address];\n        return (\n            ld.leaddeveloper_id,\n            ld.leaddeveloper_name,\n            ld.leaddeveloper_doj\n        );\n    }\n\n    // add Blockchain Admin\n    function addBlockchainAdmin(\n        uint256 _blockchain_address,\n        uint256 bca_id,\n        string memory bca_name,\n        string memory bca_doj\n    ) public {\n        blockchainadmins[_blockchain_address] = blockchainAdmin(\n            bca_id,\n            bca_name,\n            bca_doj\n        );\n    }\n\n    // get Blockchain Admin\n    function getBlockchainAdmin(uint256 _blockchain_address)\n        public\n        view\n        returns (\n            uint256,\n            string memory,\n            string memory\n        )\n    {\n        blockchainAdmin memory bca = blockchainadmins[_blockchain_address];\n        return (\n            bca.blockchainadmin_id,\n            bca.blockchainadmin_name,\n            bca.blockchainadmin_doj\n        );\n    }\n\n    // add Super Admin\n    function addSuperAdmin(\n        uint256 _superadmin_address,\n        uint256 sa_id,\n        string memory sa_name,\n        string memory sa_doj\n    ) public {\n        superadmins[_superadmin_address] = superAdmin(sa_id, sa_name, sa_doj);\n    }\n\n    // get Super Admin\n    function getSuperAdmin(uint256 _superadmin_address)\n        public\n        view\n        returns (\n            uint256,\n            string memory,\n            string memory\n        )\n    {\n        superAdmin memory sa = superadmins[_superadmin_address];\n        return (sa.superadmin_id, sa.superadmin_name, sa.superadmin_doj);\n    }\n\n    //upload code\n    function uploadCode(\n        uint256 _developer_address,\n        string memory scode,\n        uint256 developer_id,\n        string memory utimestamp\n    ) public {\n        codes[_developer_address] = code(scode, developer_id, utimestamp);\n    }\n\n    //check uploaded code\n    function ckeckUploadedCode(uint256 _leaddeveloper_address)\n        public\n        view\n        returns (\n            string memory,\n            uint256,\n            string memory\n        )\n    {\n        code memory c = codes[_leaddeveloper_address];\n        return (c.scode, c.developer_id, c.utimestamp);\n    }\n\n    // send code for testing\n    function sendCodeForTesting(\n        uint256 _leaddeveloper_address,\n        string memory tcode\n    ) public {\n        testcodes[_leaddeveloper_address] = testcode(tcode);\n    }\n\n    // check the sent code for testing\n    function checkSentCode(uint256 _leaddeveloper_address)\n        public\n        view\n        returns (string memory)\n    {\n        testcode memory tc = testcodes[_leaddeveloper_address];\n        return (tc.tcode);\n    }\n\n    // test result from ML to UI\n    function workMlResult(\n        uint256 _blockchainadmin_address,\n        string memory result,\n        string memory vulscore,\n        string memory nonvulscore,\n        string memory filename,\n        string memory ptimestamp,\n        string memory utimestamp,\n        string memory filepath\n    ) public {\n        mlResults[_blockchainadmin_address] = mlResult(\n            result,\n            vulscore,\n            nonvulscore,\n            filename,\n            ptimestamp,\n            utimestamp,\n            filepath\n        );\n    }\n\n    // get result from ML to UI\n    function getResults(uint256 _blockchainadmin_address)\n        public\n        view\n        returns (\n            string memory,\n            string memory,\n            string memory\n        )\n    {\n        mlResult memory mlr = mlResults[_blockchainadmin_address];\n        return (mlr.result, mlr.ptimestamp, mlr.vulscore);\n    }\n\n    // send result to IPFS for storage\n    function sendResultIPFS(\n        uint256 _leaddeveloper_address,\n        uint256 developer_id,\n        string memory sourcecode,\n        string memory utimestamp,\n        string memory result,\n        string memory ptimestamp,\n        string memory vulscore,\n        uint256 leaddeveloper_id,\n        string memory rtimestamp\n    ) public {\n        toIPFSs[_leaddeveloper_address] = toIPFS(\n            developer_id,\n            sourcecode,\n            utimestamp,\n            result,\n            ptimestamp,\n            vulscore,\n            leaddeveloper_id,\n            rtimestamp\n        );\n    }\n\n    // check the result  to be send from IPFS for storage\n    function CheckResultIPFS(uint256 _leaddeveloper_address)\n        public\n        view\n        returns (\n            uint256,\n            string memory,\n            string memory,\n            string memory,\n            string memory,\n            string memory,\n            uint256,\n            string memory\n        )\n    {\n        toIPFS memory ti = toIPFSs[_leaddeveloper_address];\n        return (\n            ti.developer_id,\n            ti.code,\n            ti.utimestamp,\n            ti.result,\n            ti.ptimestamp,\n            ti.vulscore,\n            ti.leaddeveloper_id,\n            ti.rtimestamp\n        );\n    }\n\n    // from IPFS (file hash generation)\n    function fileHashGen(\n        uint256 _leaddeveloper_address,\n        uint256 developer_id,\n        string memory sourcecode,\n        string memory utimestamp,\n        string memory result,\n        string memory ptimestamp,\n        string memory vulscore,\n        uint256 leaddeveloper_id,\n        string memory rtimestamp,\n        string memory filehash,\n        string memory gtimestamp\n    ) public {\n        fromIPFSs[_leaddeveloper_address] = fromIPFS(\n            developer_id,\n            sourcecode,\n            utimestamp,\n            result,\n            ptimestamp,\n            vulscore,\n            leaddeveloper_id,\n            rtimestamp,\n            filehash,\n            gtimestamp\n        );\n    }\n\n    // check the file hash to be send from IPFS\n    function checkFileHashGen(uint256 _leaddeveloper_address)\n        public\n        view\n        returns (\n            uint256,\n            string memory,\n            string memory,\n            string memory,\n            string memory,\n            string memory,\n            uint256,\n            string memory,\n            string memory,\n            string memory\n        )\n    {\n        fromIPFS memory fi = fromIPFSs[_leaddeveloper_address];\n        return (\n            fi.developer_id,\n            fi.code,\n            fi.utimestamp,\n            fi.result,\n            fi.ptimestamp,\n            fi.vulscore,\n            fi.leaddeveloper_id,\n            fi.rtimestamp,\n            fi.filehash,\n            fi.gtimestamp\n        );\n    }\n\n    // to Blockchain (all info to store)\n    function FinalBlockchain(\n        uint256 _superadmin_address,\n        uint256 leaddeveloper_id,\n        uint256 developer_id,\n        string memory sourcecode,\n        string memory utimestamp,\n        string memory result,\n        string memory ptimestamp,\n        string memory vulscore,\n        string memory rtimestamp,\n        string memory filehash,\n        string memory gtimestamp,\n        string memory pushtimestamp\n    ) public {\n        toBlockchains[_superadmin_address] = toBlockchain(\n            leaddeveloper_id,\n            developer_id,\n            sourcecode,\n            utimestamp,\n            result,\n            ptimestamp,\n            vulscore,\n            rtimestamp,\n            filehash,\n            gtimestamp,\n            pushtimestamp\n        );\n    }\n\n    // Check details of Blockchain (all info to be store)\n    function FinalBlockchain(uint256 _superadmin_address)\n        public\n        view\n        returns (\n            uint256 leaddeveloper_id,\n            uint256 developer_id,\n            string memory sourcecode,\n            string memory utimestamp,\n            string memory result,\n            string memory ptimestamp,\n            string memory vulscore,\n            string memory rtimestamp,\n            string memory filehash,\n            string memory gtimestamp,\n            string memory pushtimestamp\n        )\n    {\n        toBlockchain memory tb = toBlockchains[_superadmin_address];\n        return (\n            tb.leaddeveloper_id,\n            tb.developer_id,\n            tb.sourcecode,\n            tb.utimestamp,\n            tb.result,\n            tb.ptimestamp,\n            tb.vulscore,\n            tb.rtimestamp,\n            tb.filehash,\n            tb.gtimestamp,\n            tb.pushtimestamp\n        );\n    }\n}\n",
  "sourcePath": "/Users/jayamhy/Downloads/scvdp/contracts/Blockchain.sol",
  "compiler": {
    "name": "solc",
    "version": "0.8.14+commit.80d49f37.Emscripten.clang"
  },
  "schemaVersion": "3.4.7",
  "updatedAt": "2022-06-08T08:06:59.980Z",
  "devdoc": {
    "kind": "dev",
    "methods": {},
    "version": 1
  },
  "userdoc": {
    "kind": "user",
    "methods": {},
    "version": 1
  }
}